:10260000028E45008F828E83E0540100000070F836
:102610002278FFE4F6D8FD028ED390044FEBF0A3AE
:10262000EAF0A3E9F090044FE0FBA3E0FAA3E0F89E
:10263000AC02AD037BFF7A6479921263A0900489A7
:1026400074FFF0A37464F0A37493F090044FE0FB64
:10265000A3E0FAA3E0F9129F0A90048974FFF0A3A3
:102660007464F0A37496F090044FE0FBA3E0FAA327
:10267000E0F9129F0A90048974FFF0A37464F0A338
:1026800074A9F090044FE0FBA3E0FAA3E0F9129FD5
:102690000A90048974FFF0A37464F0A374C4F090EA
:1026A000044FE0FBA3E0FAA3E0F9129F0A9004892B
:1026B00074FFF0A37464F0A374CAF090044FE0FBBD
:1026C000A3E0FAA3E0F9129F0A90048974FFF0A333
:1026D0007464F0A374D8F0900938E0FF90048CE49F
:1026E000F0A3EFF07B017A047954126F70900489A3
:1026F0007401F0A37404F0A37454F090044FE0FB51
:10270000A3E0FAA3E0F9129F0A90048974FFF0A3F2
:102710007464F0A374E1F0A3E4F0A37406F07B0109
:102720007A047954126F709004897401F0A37404D0
:10273000F0A37454F090044FE0FBA3E0FAA3E0F997
:10274000129F0A90048974FFF0A37464F0A374F9D3
:10275000F0900BECE0FF90048CE4F0A3EFF07B0131
:102760007A047954126F709004897401F0A3740490
:10277000F0A37454F090044FE0FBA3E0FAA3E0F957
:10278000129F0A90048974FFF0A37464F0A37493F9
:10279000F090044FE0FBA3E0FAA3E0F9129F0A9047
:1027A000048974FFF0A37465F0A37409F090044FDA
:1027B000E0FBA3E0FAA3E0F9129F0A90048974FFFA
:1027C000F0A37465F0A37416F090044FE0FBA3E04F
:1027D000FAA3E0F9129F0A900A10E014604C14600A
:1027E0002B14600A14606114605E240570769004F6
:1027F0008974FFF0A37465F0A37427F090044FE090
:10280000FBA3E0FAA3E0F9129F0A805890048974B0
:10281000FFF0A37465F0A37435F090044FE0FBA3C0
:10282000E0FAA3E0F9129F0A803A90048974FFF05D
:10283000A37465F0A37443F090044FE0FBA3E0FAA7
:10284000A3E0F9129F0A801C90048974FFF0A3741E
:1028500065F0A3744CF090044FE0FBA3E0FAA3E012
:10286000F9129F0AE4900452F0A3F0C3900453E0DD
:102870009402900452E0648094804003022A7A908B
:102880000A10E06402705F90048974FFF0A374651D
:10289000F0A3745BF0900452E0FEA3E07802C3332F
:1028A000CE33CED8F924BFF582740A3EF583E0A377
:1028B000E0A3E0FFA3E090048CCFF0A3EFF07B0156
:1028C0007A047954126F709004897401F0A374042F
:1028D000F0A37454F090044FE0FBA3E0FAA3E0F9F6
:1028E000129F0A022A69900A10E06401705F900446
:1028F0008974FFF0A37465F0A3745BF0900452E058
:10290000FEA3E07802C333CE33CED8F924C7F582D4
:10291000740A3EF583E0A3E0A3E0FFA3E090048CFB
:10292000CFF0A3EFF07B017A047954126F7090041A
:10293000897401F0A37404F0A37454F090044FE080
:10294000FBA3E0FAA3E0F9129F0A022A69900A1099
:10295000E0FF64056008EF640460030229F290045C
:102960008974FFF0A37465F0A3745BF0900452E0E7
:10297000FEA3E07802C333CE33CED8F924B7F58274
:10298000740A3EF583E0A3E0A3E0FEA3E0FBAA0601
:10299000900B82E0A3E0A3E0FEA3E0FFEB2FFFEAB1
:1029A0003EFE900452E0FCA3E0246EF58274093CE4
:1029B000F583E0FDEFA805088006CEA2E713CE134D
:1029C000D8F8FF90048CEEF0A3EFF07B017A047945
:1029D00054126F709004897401F0A37404F0A3740E
:1029E00054F090044FE0FBA3E0FAA3E0F9129F0A31
:1029F000807790048974FFF0A37465F0A3745BF092
:102A0000900452E0FAA3E0FBAE027802C333CE3367
:102A1000CED8F924B7F582740A3EF583E0FCA3E032
:102A2000FDA3E0FEA3E0FF746E2BF58274093AF576
:102A300083E0F9F81260EAC3E49FFFE49E90048CFF
:102A4000F0A3EFF07B017A047954126F709004893F
:102A50007401F0A37404F0A37454F090044FE0FBED
:102A6000A3E0FAA3E0F9129F0A900453E004F07087
:102A700006900452E004F002286B90048974FFF081
:102A8000A37464F0A37493F090044FE0FBA3E0FA06
:102A9000A3E0F9129F0A90048974FFF0A37465F013
:102AA000A3745FF07B017A047954126F709009D996
:102AB000E05403601990048974FFF0A37465F0A3D7
:102AC000746FF07B017A047954129F0A8017900486
:102AD0008974FFF0A37465F0A37475F07B017A0428
:102AE0007954129F0A9004897401F0A37404F0A32E
:102AF0007454F090044FE0FBA3E0FAA3E0F9129FB6
:102B00000A90048974FFF0A37465F0A3747AF090BE
:102B1000044FE0FBA3E0FAA3E0F9129F0A900489B6
:102B200074FFF0A37465F0A37490F090044FE0FB81
:102B3000A3E0FAA3E0F9129F0AE4900452F0A3F094
:102B4000C3900453E09406900452E0648094804063
:102B500003022C0990048974FFF0A37465F0A37438
:102B6000A0F0900452E0FCA3E0FD2401FEE43C90C0
:102B7000048CF0A3CEF0EDAE047802C333CE33CE96
:102B8000D8F9247AF582740B3EF583E0FCA3E0FDCE
:102B9000A3E0FEA3E0FF900452E0FAA3E0246EF568
:102BA0008274093AF583E0F9F81260EA1260A290A3
:102BB000048EEEF0A3EFF07B017A047954126F706B
:102BC0009004897401F0A37404F0A37454F0900489
:102BD0004FE0FBA3E0FAA3E0F9129F0A9004897486
:102BE000FFF0A37464F0A37493F090044FE0FBA390
:102BF000E0FAA3E0F9129F0A900453E004F0700693
:102C0000900452E004F0022B4090048974FFF0A37A
:102C10007465F0A374A9F0900AB3E0FCA3E0FDA3EF
:102C2000E0FEA3E0FF90048C1261637B017A0479DB
:102C300054126F709004897401F0A37404F0A374AB
:102C400054F090044FE0FBA3E0FAA3E0F9129F0ACE
:102C500090048974FFF0A37464F0A37493F090045B
:102C60004FE0FBA3E0FAA3E0F9129F0A90048974F5
:102C7000FFF0A37465F0A374BBF0900B92E0FCA38B
:102C8000E0FDA3E0FEA3E0FF90048C1261637B01F2
:102C90007A047954126F709004897401F0A374045B
:102CA000F0A37454F090044FE0FBA3E0FAA3E0F922
:102CB000129F0A90048974FFF0A37464F0A37493C4
:102CC000F090044FE0FBA3E0FAA3E0F9129F0A9012
:102CD000048974FFF0A37465F0A374CFF0900B9691
:102CE000E0FCA3E0FDA3E0FEA3E0FF90048C1261F2
:102CF000637B017A047954126F709004897401F037
:102D0000A37404F0A37454F090044FE0FBA3E0FA22
:102D1000A3E0F9129F0A90048974FFF0A37464F091
:102D2000A37493F090044FE0FBA3E0FAA3E0F91240
:102D30009F0A90048974FFF0A37465F0A374E3F014
:102D400090044FE0FBA3E0FAA3E0F9129F0A90047D
:102D50008974FFF0A37465F0A374F9F090044FE058
:102D6000FBA3E0FAA3E0F9129F0A90096DE0FF646B
:102D7000037003022E80EF64057003022E8090041E
:102D80008974FFF0A37466F0A3740BF0900939E026
:102D9000FCA3E0FDA3E0FEA3E0FFEC125B98E4FBE4
:102DA000FA79807847125A8290048C1261637B0111
:102DB0007A047954126F709004897401F0A374043A
:102DC000F0A37454F090044FE0FBA3E0FAA3E0F901
:102DD000129F0A90048974FFF0A37466F0A374151F
:102DE000F090093DE0FCA3E0FDA3E0FEA3E0FFECD2
:102DF000125B98E4FBFA79807847125A8290048C2F
:102E00001261637B017A047954126F7090048974A3
:102E100001F0A37404F0A37454F090044FE0FBA3FA
:102E2000E0FAA3E0F9129F0A90048974FFF0A374FA
:102E300066F0A3741FF0900941E0FCA3E0FDA3E05D
:102E4000FEA3E0FFEC125B98E4FBFA79807847126E
:102E50005A8290048C1261637B017A047954126F58
:102E6000709004897401F0A37404F0A37454F0907A
:102E7000044FE0FBA3E0FAA3E0F9129F0A022F7FC0
:102E800090048974FFF0A37466F0A3740BF09009AA
:102E900051E0FCA3E0FDA3E0FEA3E0FFEC125B9891
:102EA000E4FBFA79807847125A8290048C126163AD
:102EB0007B017A047954126F709004897401F0A335
:102EC0007404F0A37454F090044FE0FBA3E0FAA361
:102ED000E0F9129F0A90048974FFF0A37466F0A3CE
:102EE0007415F0900955E0FCA3E0FDA3E0FEA3E01B
:102EF000FFEC125B98E4FBFA79807847125A8290D3
:102F0000048C1261637B017A047954126F7090040F
:102F1000897401F0A37404F0A37454F090044FE09A
:102F2000FBA3E0FAA3E0F9129F0A90048974FFF072
:102F3000A37466F0A3741FF0900959E0FCA3E0FDB0
:102F4000A3E0FEA3E0FFEC125B98E4FBFA79807843
:102F500047125A8290048C1261637B017A0479547F
:102F6000126F709004897401F0A37404F0A3745478
:102F7000F090044FE0FBA3E0FAA3E0F9129F0A905F
:102F8000048974FFF0A37466F0A37429F090044FD1
:102F9000E0FBA3E0FAA3E0F9129F0A90096DE0FFBD
:102FA000640370030230B1EF640570030230B19026
:102FB000048974FFF0A37466F0A3740BF0900945C4
:102FC000E0FCA3E0FDA3E0FEA3E0FFEC125B98E4CD
:102FD000FBFA79807847125A8290048C1261637BE5
:102FE000017A047954126F709004897401F0A3740B
:102FF00004F0A37454F090044FE0FBA3E0FAA3E0C4
:10300000F9129F0A90048974FFF0A37466F0A37408
:1030100015F0900949E0FCA3E0FDA3E0FEA3E0FF6A
:10302000EC125B98E4FBFA79807847125A8290049C
:103030008C1261637B017A047954126F7090048959
:103040007401F0A37404F0A37454F090044FE0FBF7
:10305000A3E0FAA3E0F9129F0A90048974FFF0A399
:103060007466F0A3741FF090094DE0FCA3E0FDA38B
:10307000E0FEA3E0FFEC125B98E4FBFA798078476E
:10308000125A8290048C1261637B017A0479541283
:103090006F709004897401F0A37404F0A37454F069
:1030A00090044FE0FBA3E0FAA3E0F9129F0A02317B
:1030B000B090048974FFF0A37466F0A3740BF090D1
:1030C000095DE0FCA3E0FDA3E0FEA3E0FFEC125BE2
:1030D00098E4FBFA79807847125A8290048C126146
:1030E000637B017A047954126F709004897401F043
:1030F000A37404F0A37454F090044FE0FBA3E0FA2F
:10310000A3E0F9129F0A90048974FFF0A37466F09B
:10311000A37415F0900961E0FCA3E0FDA3E0FEA319
:10312000E0FFEC125B98E4FBFA79807847125A8250
:1031300090048C1261637B017A047954126F709051
:1031400004897401F0A37404F0A37454F090044F44
:10315000E0FBA3E0FAA3E0F9129F0A90048974FF50
:10316000F0A37466F0A3741FF0900965E0FCA3E07F
:10317000FDA3E0FEA3E0FFEC125B98E4FBFA79808C
:103180007847125A8290048C1261637B017A047929
:1031900054126F709004897401F0A37404F0A37446
:1031A00054F090044FE0FBA3E0FAA3E0F9129F0A69
:1031B00090048974FFF0A37464F0A37493F09004F6
:1031C0004FE0FBA3E0FAA3E0F9129F0A90096BE03D
:1031D000B4031E90048974FFF0A37466F0A37443D3
:1031E000F090044FE0FBA3E0FAA3E0F9129F0A80FD
:1031F0001C90048974FFF0A37466F0A3745DF090D2
:10320000044FE0FBA3E0FAA3E0F9129F0A90096CD7
:10321000E014602104703A90048974FFF0A374668E
:10322000F0A37476F090044FE0FBA3E0FAA3E0F97A
:10323000129F0A801C90048974FFF0A37466F0A3A7
:103240007488F090044FE0FBA3E0FAA3E0F9129F2A
:103250000A90048974FFF0A37466F0A3749FF09041
:10326000044FE0FBA3E0FAA3E0F9129F0A90096D76
:10327000E014603814605314606E14700302330657
:103280001470030233242405600302334090048940
:1032900074FFF0A37466F0A374AEF090044FE0FBEB
:1032A000A3E0FAA3E0F9129F0A0233409004897464
:1032B000FFF0A37466F0A374B9F090044FE0FBA391
:1032C000E0FAA3E0F9129F0A807690048974FFF077
:1032D000A37466F0A374BFF090044FE0FBA3E0FA80
:1032E000A3E0F9129F0A805890048974FFF0A37438
:1032F00066F0A374C9F090044FE0FBA3E0FAA3E0EA
:10330000F9129F0A803A90048974FFF0A37466F062
:10331000A374E0F090044FE0FBA3E0FAA3E0F912FD
:103320009F0A801C90048974FFF0A37466F0A37454
:10333000EDF090044FE0FBA3E0FAA3E0F9129F0A3E
:1033400090048974FFF0A37467F0A37406F09004EE
:103350004FE0FBA3E0FAA3E0F9129F0AE4900452C5
:10336000F0A3F0C3900453E09406900452E064800C
:10337000948040030233FF90048974FFF0A37465C6
:10338000F0A374A0F0900452E0FCA3E0FD2401FE41
:10339000E43C90048CF0A3CEF0746E2DF582740999
:1033A0003CF583E0FF90048EE4F0A3EFF07B017A1C
:1033B000047954126F709004897401F0A37404F0BE
:1033C000A37454F090044FE0FBA3E0FAA3E0F912D9
:1033D0009F0A90048974FFF0A37464F0A37493F0BF
:1033E00090044FE0FBA3E0FAA3E0F9129F0A9004D7
:1033F00053E004F07006900452E004F0023363904E
:10340000048974FFF0A37467F0A3741BF090044F59
:10341000E0FBA3E0FAA3E0F9129F0AE4900452F063
:10342000A3F0900452E0FEA3E0FFC39406EE648094
:1034300094804003023559EF64024E706C90048909
:1034400074FFF0A37467F0A37431F0900452E0FCB1
:10345000A3E0FD2401FEE43C90048CF0A3CEF0ED4B
:10346000AE047802C333CE33CED8F92474F5827417
:10347000093EF583E0FCA3E0FDA3E0FEA3E0FF121C
:1034800060A2900452E0FAA3E0246EF58274093A37
:10349000F583E0F9F81260EA90048E1261637B0113
:1034A0007A047954126F70806790048974FFF0A3D6
:1034B0007467F0A37431F0900452E0FCA3E0FD24A3
:1034C00001FEE43C90048CF0A3CEF0EDAE04780253
:1034D000C333CE33CED8F92474F58274093EF58314
:1034E000E0FCA3E0FDA3E0FEA3E0FF900452E0FABD
:1034F000A3E0246EF58274093AF583E0F9F81260CE
:10350000EA90048E1261637B017A047954126F7021
:103510009004897401F0A37404F0A37454F090042F
:103520004FE0FBA3E0FAA3E0F9129F0A900489742C
:10353000FFF0A37464F0A37493F090044FE0FBA336
:10354000E0FAA3E0F9129F0A900453E004F0700639
:10355000900452E004F002342290048974FFF0A336
:103560007467F0A3743BF090044FE0FBA3E0FAA370
:10357000E0F9129F0AE4900452F0A3F0C3900453C0
:10358000E09406900452E064809480400302362A5E
:1035900090048974FFF0A37467F0A37455F090044D
:1035A00052E0FCA3E0FD2401FEE43C90048CF0A377
:1035B000CEF0EDAE047802C333CE33CED8F9248CEE
:1035C000F58274093EF583E0FCA3E0FDA3E0FEA3D1
:1035D000E0FF90048E1261637B017A047954126FCC
:1035E000709004897401F0A37404F0A37454F090F3
:1035F000044FE0FBA3E0FAA3E0F9129F0A900489CC
:1036000074FFF0A37464F0A37493F090044FE0FB94
:10361000A3E0FAA3E0F9129F0A900453E004F070CB
:1036200006900452E004F002357C90048974FFF0A7
:10363000A37467F0A3745EF0900A47E0FF90048CD7
:10364000E4F0A3EFF07B017A047954126F709004D8
:10365000897401F0A37404F0A37454F090044FE053
:10366000FBA3E0FAA3E0F9129F0A90048974FFF02B
:10367000A37464F0A37493F090044FE0FBA3E0FA0A
:10368000A3E0F9129F0AE4900452F0A3F0C390045F
:1036900053E09402900452E0648094804003023727
:1036A000A590048974FFF0A37467F0A37478F09078
:1036B0000452E0FCA3E0FD2401FEE43C90048CF005
:1036C000A3CEF0EDAE047802C333CE33CED8F924C6
:1036D00048F582740A3EF583E0FCA3E0FDA3E0FE1A
:1036E000A3E0FF900452E0FAA3E02411F582740AEB
:1036F0003AF583E0F9F81260EA90048E1261637B78
:10370000017A047954126F709004897401F0A374E3
:1037100004F0A37454F090044FE0FBA3E0FAA3E09C
:10372000F9129F0A90048974FFF0A37467F0A374E0
:103730009EF0900452E0FAA3E0FBAE027802C3339D
:10374000CE33CED8F92450F582740A3EF583E0FCDE
:10375000A3E0FDA3E0FEA3E0FF74112BF582740A41
:103760003AF583E0F9F81260EA90048C1261637B09
:10377000017A047954126F709004897401F0A37473
:1037800004F0A37454F090044FE0FBA3E0FAA3E02C
:10379000F9129F0A900453E004F07006900452E07E
:1037A00004F002368D90048974FFF0A37467F0A3CF
:1037B00074ABF0900A58E0FEA3E0FF900A11E0FD20
:1037C000EFA805088006CEA2E713CE13D8F8FF9025
:1037D000048CEEF0A3EFF07B017A047954126F7041
:1037E0009004897401F0A37404F0A37454F090045D
:1037F0004FE0FBA3E0FAA3E0F9129F0A900489745A
:10380000FFF0A37464F0A37493F090044FE0FBA363
:10381000E0FAA3E0F9129F0A90048974FFF0A37400
:1038200067F0A374BDF0900A0CE0FFA3E090048C55
:10383000CFF0A3EFF07B017A047954126F709004FB
:10384000897401F0A37404F0A37454F090044FE061
:10385000FBA3E0FAA3E0F9129F0A90048974FFF039
:10386000A37464F0A37493F090044FE0FBA3E0FA18
:10387000A3E0F9129F0A90048974FFF0A37467F023
:10388000A374CFF0900AAFE0F8A3E0F9A3E0FAA3A5
:10389000E0FB900B6EE0FCA3E0FDA3E0FEA3E0C321
:1038A0009BFFEE9AFEED99FDEC98FC90048C126162
:1038B000637B017A047954126F709004897401F06B
:1038C000A37404F0A37454F090044FE0FBA3E0FA57
:1038D000A3E0F9129F0A90048974FFF0A37464F0C6
:1038E000A37493F090044FE0FBA3E0FAA3E0F91275
:1038F0009F0A22900003EEF0A3EFF0A37404F0A35C
:10390000747FF0780C7C007D017BFF7A6779DA7E2A
:10391000007F0F1262C2781B7C007D017BFF7A67FB
:1039200079E97E007F1C1262C278377C007D017BC2
:10393000FF7A6879057E007F1B1262C278527C0094
:103940007D017BFF7A6879207E007F1C1262C2783D
:103950006E7C007D017BFF7A68793C7E007F1B12C4
:1039600062C278897C007D017BFF7A6879577E008E
:103970007F271262C278B07C007D017BFF7A687974
:103980007E7E007F111262C278C17C007D017BFFC8
:103990007A68798F7E007F191262C278DA7C007DA6
:1039A000017BFF7A6879A87E007F111262C278EBF2
:1039B0007C007D017BFF7A6879B97E007F1C1262F2
:1039C000C278077C017D017BFF7A6879D57E007F14
:1039D0001D1262C278247C017D017BFF7A6879F236
:1039E0007E007F1B1262C2783F7C017D017BFF7AE3
:1039F00069790D7E007F141262C278537C017D01CB
:103A00007BFF7A6979217E007F341262C278877CDD
:103A1000017D017BFF7A6979557E007F631262C266
:103A200078EA7C017D017BFF7A6979B87E007F2A84
:103A30001262C27B017A00790C12ABD18F707B01CC
:103A40007A00791B12ABD18F717B017A0079371222
:103A5000ABD18F727B017A0079B012ABD18F737BBF
:103A6000017A0079C112ABD18F747B017A0079DAC7
:103A700012ABD18F757B017A01790712ABD18F76AA
:103A80007B017A01793F12ABD18F777B017A017983
:103A90005312ABD18F787B017A01798712ABD18F2A
:103AA000797B017A01795312ABD18F7A9004B67485
:103AB0000CF0A304F0900003E0FEA3E0FFEE60032F
:103AC0000249E2EFB40E0040030249E2903AD3F813
:103AD000282873023AFD0245090245120245E70211
:103AE00046BC0246C50246CE0246D70247100247F0
:103AF000BB02482202482B0249500249D39004B825
:103B00007402F0A314F0900938E09004BAF0756ED6
:103B10000085706FE56F456E602CC3E570956FFF93
:103B2000E4956EFE740C2FF58274003EF583E0FD83
:103B300074BB2FF58274043EF583EDF0E56F156FCD
:103B40007002156E80CE9004EA7407F0A37403F03F
:103B500090096DE06403606DE06405606890093968
:103B6000E0FCA3E0FDA3E0FEA3E0FFEC125B98E421
:103B7000FBFA79807847125A829004EC12616390C4
:103B8000093DE0FCA3E0FDA3E0FEA3E0FFEC125B37
:103B900098E4FBFA79807847125A829004F0126117
:103BA00063900941E0FCA3E0FDA3E0FEA3E0FFEC8D
:103BB000125B98E4FBFA79807847125A829004F4F9
:103BC0001261638066900951E0FCA3E0FDA3E0FE72
:103BD000A3E0FFEC125B98E4FBFA79807847125A75
:103BE000829004EC126163900955E0FCA3E0FDA310
:103BF000E0FEA3E0FFEC125B98E4FBFA79807847E3
:103C0000125A829004F0126163900959E0FCA3E01B
:103C1000FDA3E0FEA3E0FFEC125B98E4FBFA7980E1
:103C20007847125A829004F4126163756E008571B0
:103C30006FE56F456E602CC3E571956FFFE4956E7F
:103C4000FE741B2FF58274003EF583E0FD74F82F9F
:103C5000F58274043EF583EDF0E56F156F70021583
:103C60006E80CE90051C7407F0A37403F090096D6C
:103C7000E06403606DE064056068900945E0FCA3C2
:103C8000E0FDA3E0FEA3E0FFEC125B98E4FBFA7911
:103C9000807847125A8290051E126163900949E0AC
:103CA000FCA3E0FDA3E0FEA3E0FFEC125B98E4FBC5
:103CB000FA79807847125A8290052212616390093E
:103CC0004DE0FCA3E0FDA3E0FEA3E0FFEC125B9857
:103CD000E4FBFA79807847125A82900526126163D4
:103CE000806690095DE0FCA3E0FDA3E0FEA3E0FF99
:103CF000EC125B98E4FBFA79807847125A829005BF
:103D00001E126163900961E0FCA3E0FDA3E0FEA345
:103D1000E0FFEC125B98E4FBFA79807847125A8254
:103D2000900522126163900965E0FCA3E0FDA3E029
:103D3000FEA3E0FFEC125B98E4FBFA79807847126F
:103D40005A82900526126163756E0085726FE56F69
:103D5000456E602CC3E572956FFFE4956EFE743777
:103D60002FF58274003EF583E0FD742A2FF58274EE
:103D7000053EF583EDF0E56F156F7002156E80CE90
:103D8000E490054EF0A304F090096BE0900550F02C
:103D900090096B601F90048974FFF0A37464F0A312
:103DA000741DF07B017A007952129F0A900007740B
:103DB0001CF0801D90048974FFF0A37464F0A37458
:103DC00023F07B017A007952129F0A900007741B3E
:103DD000F0900007E0756E00F56FE56F456E602EA0
:103DE000900007E0C3956FFFE4956EFE74522FF5C7
:103DF0008274003EF583E0FD74512FF58274053E18
:103E0000F583EDF0E56F156F7002156E80CC9000B4
:103E100007E02451F582E43405F5837403F0E4905F
:103E20000580F0A304F090096CE0900582F0900901
:103E30006C14602204703C90048974FFF0A37464D5
:103E4000F0A37428F07B017A00796E129F0A90002B
:103E5000077414F0801D90048974FFF0A37464F05B
:103E6000A3742EF07B017A00796E129F0A900007EE
:103E7000741AF0900007E0756E00F56FE56F456EFF
:103E8000602E900007E0C3956FFFE4956EFE746EA0
:103E90002FF58274003EF583E0FD74832FF5827464
:103EA000053EF583EDF0E56F156F7002156E80CC61
:103EB000900007E02483F582E43405F5837401F073
:103EC000E49005B2F0A304F090096DE09005B4F021
:103ED00090096D14603914605514607114700302F8
:103EE0003F6C147003023F8B24056003023FA890CF
:103EF000048974FFF0A37464F0A3743AF07B017A30
:103F0000007989129F0A900007741BF0023FA89065
:103F1000048974FFF0A37464F0A37445F07B017A04
:103F2000007989129F0A9000077416F0807A900435
:103F30008974FFF0A37464F0A3744BF07B017A00E2
:103F40007989129F0A900007741AF0805B900489A7
:103F500074FFF0A37464F0A37455F07B017A0079C8
:103F600089129F0A9000077427F0803C900489749E
:103F7000FFF0A37464F0A3746CF07B017A0079897C
:103F8000129F0A900007741DF0801D90048974FF31
:103F9000F0A37464F0A37479F07B017A007989123C
:103FA0009F0A9000077429F0900007E0756E00F5F5
:103FB0006FE56F456E602E900007E0C3956FFFE4DC
:103FC000956EFE74892FF58274003EF583E0FD74D2
:103FD000B52FF58274053EF583EDF0E56F156F7032
:103FE00002156E80CC900007E024B5F582E434051C
:103FF000F5837402F09005E4F0A37406F0E4F56E26
:10400000F56FC3E56F9406E56E94005026746E2537
:104010006FF5827409356EF583E0FF74E6256FF560
:10402000827405356EF583EFF0056FE56F7002055C
:104030006E80CF756E0085736FE56F456E602CC323
:10404000E573956FFFE4956EFE74B02FF5827400F2
:104050003EF583E0FD74EC2FF58274053EF583EDAB
:10406000F0E56F156F7002156E80CE900616740322
:10407000F0A37406F0E4F56EF56FC3E56F9406E502
:104080006E94005059E56FAE6E7802C333CE33CED6
:10409000D8F92474F58274093EF583E0FCA3E0FDB1
:1040A000A3E0FEA3E0FF746E256FF5827409356E00
:1040B000F583E0F9F81260EAAD07AC06E56F25E09C
:1040C000FFE56E33FE74182FF58274063EF583EC1F
:1040D000F0A3EDF0056FE56F7002056E809C756EC4
:1040E0000085746FE56F456E602CC3E574956FFFB6
:1040F000E4956EFE74C12FF58274003EF583E0FDF9
:1041000074242FF58274063EF583EDF0E56F156F8C
:104110007002156E80CE9006487407F0A314F0E488
:10412000F56EF56FC3E56F9406E56E94005054E5A7
:104130006FAE6E7802C333CE33CED8F9248CF582BD
:1041400074093EF583E0FCA3E0FDA3E0FEA3E0FFDD
:10415000C004C005C006C007E56FAE6E7802C33369
:10416000CE33CED8F9244AF58274063EF583D007C3
:10417000D006D005D004126163056FE56F700205AB
:104180006E80A1756E0085756FE56F456E602CC3FE
:10419000E575956FFFE4956EFE74DA2FF582740075
:1041A0003EF583E0FD74622FF58274063EF583EDE3
:1041B000F0E56F156F7002156E80CEE490067AF010
:1041C000A304F09009A4E090067CF09009A4601F7D
:1041D00090048974FFF0A37464F0A3741DF07B0154
:1041E0007A0079EB129F0A900007741CF0801D90F2
:1041F000048974FFF0A37464F0A37423F07B017A44
:104200000079EB129F0A900007741BF0900007E002
:10421000756E00F56FE56F456E602E900007E0C388
:10422000956FFFE4956EFE74EB2FF58274003EF5FA
:1042300083E0FD747D2FF58274063EF583EDF0E595
:104240006F156F7002156E80CC900007E0247DF52D
:1042500082E43406F5837403F09006AC7405F0A391
:1042600014F0E4F56EF56FC3E56F9402E56E94000B
:104270004003024338E56FAE6E7802C333CE33CECF
:10428000D8F924A5F58274093EF583E0FCA3E0FD8E
:10429000A3E0FEA3E0FF746E256FF5827409356E0E
:1042A000F583E0F9F81260EAC004C005C006C00753
:1042B000E56FAE6E7803C333CE33CED8F924AEF5B6
:1042C0008274063EF583D007D006D005D004126173
:1042D00063E56FAE6E7802C333CE33CED8F924AD2A
:1042E000F58274093EF583E0FCA3E0FDA3E0FEA3A4
:1042F000E0FF746E256FF5827409356EF583E0F981
:10430000F81260EAC004C005C006C007E56FAE6ED3
:104310007803C333CE33CED8F924B2F58274063E87
:10432000F583D007D006D005D004126163056FE590
:104330006F7002056E024267756E0085766FE56FDD
:10434000456E602CC3E576956FFFE4956EFE7407AD
:104350002FF58274013EF583E0FD74BE2FF5827463
:10436000063EF583EDF0E56F156F7002156E80CE99
:104370009006DE7405F0A37402F09009B9E0FCA386
:10438000E0FDA3E0FEA3E0FF9006E0126163900968
:10439000BDE0FCA3E0FDA3E0FEA3E0FF9006E41275
:1043A0006163E4F56EF56F7B017A01792412ABD17C
:1043B000C3E56F9FE56E9E50267424256FF58274C9
:1043C00001356EF583E0FF74E8256FF582740635DC
:1043D0006EF583EFF0056FE56F7002056E80C89093
:1043E00007107403F0A37401F0900969E0FFA3E0E3
:1043F000900712CFF0A3EFF0756E0085776FE56F31
:10440000456E602CC3E577956FFFE4956EFE743FB3
:104410002FF58274013EF583E0FD74142FF582744C
:10442000073EF583EDF0E56F156F7002156E80CED7
:10443000756E0085786FE56F456E602CC3E57895E5
:104440006FFFE4956EFE74532FF58274013EF58381
:10445000E0FD74422FF58274073EF583EDF0E56FC1
:10446000156F7002156E80CE756E0085796FE56FE1
:10447000456E602CC3E579956FFFE4956EFE7487F9
:104480002FF58274013EF583E0FD74D82FF5827418
:10449000073EF583EDF0E56F156F7002156E80CE67
:1044A000756E00857A6FE56F456E602CC3E57A9571
:1044B0006FFFE4956EFE74EA2FF58274013EF5837A
:1044C000E0FD746E2FF58274083EF583EDF0E56F24
:1044D000156F7002156E80CE7B017A0479B690005C
:1044E00005E0A3E014FD12A779900005E0FCA3E02D
:1044F000FD24B5F58274043CF583EFF07B017A046A
:1045000079B612983E12AD0422900AD3E09009DBEE
:10451000F02290096DE064036069E064056064E482
:10452000FFFE7D807C47900AD3E0F8A3E0F9A3E08A
:10453000FAA3E0FB125979125BD69009DC12616391
:10454000E4FFFE7D807C47900AD7E0F8A3E0F9A362
:10455000E0FAA3E0FB125979125BD69009E01261F0
:1045600063E4FFFE7D807C47900ADBE0F8A3E0F97E
:10457000A3E0FAA3E0FB125979125BD69009E4128A
:10458000616322E4FFFE7D807C47900AD3E0F8A3BC
:10459000E0F9A3E0FAA3E0FB125979125BD6900987
:1045A000F4126163E4FFFE7D807C47900AD7E0F857
:1045B000A3E0F9A3E0FAA3E0FB125979125BD690CD
:1045C00009F8126163E4FFFE7D807C47900ADBE01E
:1045D000F8A3E0F9A3E0FAA3E0FB125979125BD645
:1045E0009009FC1261632290096DE064036069E048
:1045F00064056064E4FFFE7D807C47900AD3E0F8A8
:10460000A3E0F9A3E0FAA3E0FB125979125BD6907C
:1046100009E8126163E4FFFE7D807C47900AD7E0E1
:10462000F8A3E0F9A3E0FAA3E0FB125979125BD6F4
:104630009009EC126163E4FFFE7D807C47900ADB09
:10464000E0F8A3E0F9A3E0FAA3E0FB125979125BCA
:10465000D69009F012616322E4FFFE7D807C4790D2
:104660000AD3E0F8A3E0F9A3E0FAA3E0FB1259793A
:10467000125BD6900A00126163E4FFFE7D807C47E6
:10468000900AD7E0F8A3E0F9A3E0FAA3E0FB1259FF
:1046900079125BD6900A04126163E4FFFE7D807C90
:1046A00047900ADBE0F8A3E0F9A3E0FAA3E0FB12ED
:1046B0005979125BD6900A0812616322900AD3E0FE
:1046C000900A0EF022900AD3E0900A0FF022900A8E
:1046D000D3E0900A10F022E4F56EF56FC3E56F9415
:1046E00006E56E940040030249E274D3256FF5821B
:1046F000740A356EF583E0FF7411256FF582740A34
:10470000356EF583EFF0056FE56F7002056E80CCB6
:10471000E4F56EF56FC3E56F9406E56E9400400313
:104720000247B8E56F25E0FFE56E33FE74D32FF541
:1047300082740A3EF583E0FEA3E0FFEE3395E0FDD0
:10474000FCC004C005C006C007E56FAE6E7802C3AA
:1047500033CE33CED8F9FBAA062417F582740A3A71
:10476000F583D007D006D005D00412616374172BEF
:10477000F582740A3AF583C083C082E0FCA3E0FDB1
:10478000A3E0FEA3E0FF7411256FF582740A356E75
:10479000F583E0F9F81260FED082D0831261637471
:1047A0009A256FF582740B356EF583E4F0056FE59D
:1047B0006F7002056E024715D20A22E4F56EF56F9E
:1047C000C3E56F9406E56E940040030249E2E56F8D
:1047D000AE6E7802C333CE33CED8F924D3F58274CB
:1047E0000A3EF583E0FCA3E0FDA3E0FEA3E0FFC0EA
:1047F00004C005C006C007E56FAE6E7802C333CEB5
:1048000033CED8F9242FF582740A3EF583D007D031
:1048100006D005D004126163056FE56F7002056E66
:10482000809E900AD3E0900A47F022E4F56EF56F7F
:10483000C3E56F9402E56E940040030249E2E56F20
:10484000AE6E7803C333CE33CED8F924D3F5827459
:104850000A3EF583E0FCA3E0FDA3E0FEA3E0FFC079
:1048600004C005C006C007E56FAE6E7802C333CE44
:1048700033CED8F92448F582740A3EF583D007D0A8
:1048800006D005D004126163E56FAE6E7803C333C2
:10489000CE33CED8F924D7F582740A3EF583E0FCF6
:1048A000A3E0FDA3E0FEA3E0FFC004C005C006C076
:1048B00007E56FAE6E7802C333CE33CED8F9FBAACC
:1048C000062450F582740A3AF583D007D006D00545
:1048D000D00412616374482BF582740A3AF583C0E0
:1048E00083C082E0FCA3E0FDA3E0FEA3E0FF74111F
:1048F000256FF582740A356EF583E0F9F81260FED3
:10490000D082D083126163E56FAE6E7802C333CE7E
:1049100033CED8F92450F582740A3EF583C083C0A3
:1049200082E0FCA3E0FDA3E0FEA3E0FF7411256F8D
:10493000F582740A356EF583E0F9F81260FED082D4
:10494000D083126163056FE56F7002056E02483017
:10495000900AD3E0FCA3E0FDA3E0FEA3E0FF9000FB
:1049600008126163E4FFFEFDFC900008E0F8A3E09C
:10497000F9A3E0FAA3E0FBD31260B0501490000852
:10498000E0FCA3E0FDA3E0FEA3E0FF900A5C12615F
:1049900063900AD7E0FCA3E0FDA3E0FEA3E0FF9054
:1049A0000008126163E4FFFEFDFC900008E0F8A33C
:1049B000E0F9A3E0FAA3E0FBC31260B0402490004A
:1049C00008E0FCA3E0FDA3E0FEA3E0FF900A601274
:1049D000616322900AD3E0FFA3E0900A0CCFF0A31A
:1049E000EFF0228F23E4F52BF52AF529F52890091D
:1049F00039E0FCA3E0FDA3E0FEA3E0F53F8E3E8D91
:104A00003D8C3CA3E0FCA3E0FDA3E0FEA3E0F54366
:104A10008E428D418C40A3E0FCA3E0FDA3E0FEA309
:104A2000E0F5478E468D458C44A3E0FCA3E0FDA352
:104A3000E0FEA3E0F54B8E4A8D498C48A3E0FCA331
:104A4000E0FDA3E0FEA3E0F54F8E4E8D4D8C4CA310
:104A5000E0FCA3E0FDA3E0FEA3E0F5538E528D51F0
:104A60008C50A3E0FCA3E0FDA3E0FEA3E0F5578E8D
:104A7000568D558C54A3E0FCA3E0FDA3E0FEA3E01B
:104A8000F55B8E5A8D598C58A3E0FCA3E0FDA3E0A2
:104A9000FEA3E0F55F8E5E8D5D8C5CA3E0FCA3E081
:104AA000FDA3E0FEA3E0F5638E628D618C60A3E060
:104AB000FCA3E0FDA3E0FEA3E0F5678E668D658CA8
:104AC00064A3E0FCA3E0FDA3E0FEA3E0F56B8E6A27
:104AD0008D698C68E523C3940240030259789009DC
:104AE0006CE064016003024BDE900A6DE0FCA3E021
:104AF000FDA3E0FEA3E0FFE52325E025E024C1F5CA
:104B000082E43409F5831261639009A4E070030222
:104B10004BDEE52325E025E024A5F582E43409F504
:104B200083E0FCA3E0FDA3E0FEA3E0FFE52325E096
:104B300025E024C1F582E43409F583E0F8A3E0F927
:104B4000A3E0FAA3E0FBC31260B0502CE52325E0FC
:104B500025E024A5F582E43409F583E0FCA3E0FD1B
:104B6000A3E0FEA3E0FFE52325E025E024C1F582D4
:104B7000E43409F583126163E52325E025E024ADE3
:104B8000F582E43409F583E0FCA3E0FDA3E0FEA395
:104B9000E0FFE52325E025E024C1F582E43409F5B2
:104BA00083E0F8A3E0F9A3E0FAA3E0FBD31260B03E
:104BB000402CE52325E025E024ADF582E43409F519
:104BC00083E0FCA3E0FDA3E0FEA3E0FFE52325E0F6
:104BD00025E024C1F582E43409F58312616390096C
:104BE0006DE0FF14700302580B14700302551F147C
:104BF0007003024F3814600D147003024F382405FF
:104C00006003025863EF64046003024C8EE52325C1
:104C1000E025E024C1F582E43409F583E0FCA3E05B
:104C2000FDA3E0FEA3E0FF900B82E0F8A3E0F9A370
:104C3000E0FAA3E0FBC3EF9BFFEE9AFEED99FDECDB
:104C400098FC1260A2E52325E025E02434F81261E7
:104C500057E52325E025E0247AF582E4340BF5833B
:104C6000E0F8A3E0F9A3E0FAA3E0FBC000E5232508
:104C7000E025E02434F812614BD000C3EF9BF52F00
:104C8000EE9AF52EED99F52DEC98F52C8043E52361
:104C900025E025E0247AF582E4340BF583E0F8A3DF
:104CA000E0F9A3E0FAA3E0FBE52325E025E024C139
:104CB000F582E43409F583E0FCA3E0FDA3E0FEA364
:104CC000E0C39BF52FEE9AF52EED99F52DEC98F5B6
:104CD0002CE52325E025E0246FF582E4340CF583F0
:104CE000C083C082E0FCA3E0FDA3E0FEA3E0252F8B
:104CF000FFEE352EFEED352DFDEC352CFCD082D0AF
:104D000083126163300C05C20C128C01E52325E08F
:104D100025E0246FF582E4340CF583E0FCA3E0FD8C
:104D2000A3E0FEA3E0FF7BA07A8679017800C3129E
:104D300060B0501C7FA07E867D017C00E52325E0CD
:104D400025E0246FF582E4340CF583126163804220
:104D5000E52325E025E0246FF582E4340CF583E0BB
:104D6000FCA3E0FDA3E0FEA3E0FF7B607A7979FE7F
:104D700078FFD31260B0401A7F607E797DFE7CFFA1
:104D8000E52325E025E0246FF582E4340CF5831259
:104D90006163300C05C20C128C01E4F52BF52AF589
:104DA00029F528FFFEFDFCAB3FAA3EA93DA83CC368
:104DB0001260B0606AE4FFFE7D02FCAB2FAA2EA950
:104DC0002DA82CD31260B0500FE4FFFE7DFE7CFFB7
:104DD000A82CC31260B05027AF2FAE2EAD2DAC2C37
:104DE00078081260EAAB3FAA3EA93DA83C125F7862
:104DF00078081260EA8F2B8E2A8D298C288020AFAC
:104E00002FAE2EAD2DAC2CAB3FAA3EA93DA83C1237
:104E10005F7878101260EA8F2B8E2A8D298C2830CB
:104E20000C05C20C128C01E4FFFEFDFCAB43AA4250
:104E3000A941A840C31260B06043AF43AE42AD4148
:104E4000AC4078061260EAE52325E025E0246FF502
:104E500082E4340CF583E0F8A3E0F9A3E0FAA3E0E0
:104E6000FB125F78780A1260EAE52B2FF52BE52A12
:104E70003EF52AE5293DF529E5283CF528E4FFFE25
:104E8000FDFCAB47AA46A945A844C31260B06063C5
:104E9000E52325E025E0247AF582E4340BF583E070
:104EA000F8A3E0F9A3E0FAA3E0FBE52325E025E081
:104EB0002465F582E4340AF583E0FCA3E0FDA3E079
:104EC000FEA3E0C39BFFEE9AFEED99FDEC98FCABD0
:104ED00047AA46A945A844125F7878101260EAE50F
:104EE0002B2FF52BE52A3EF52AE5293DF529E52866
:104EF0003CF528300C05C20C128C01E523701CFF18
:104F0000FEFDFCAB2BAA2AA929A828C31260B04039
:104F100005D20E025863C20E025863E4FFFEFDFC88
:104F2000AB2BAA2AA929A828C31260B04005D20F2A
:104F3000025863C20F02586390096DE06405600374
:104F4000024FC4E52325E025E024C1F582E43409BD
:104F5000F583E0FCA3E0FDA3E0FEA3E0FF900B825D
:104F6000E0F8A3E0F9A3E0FAA3E0FBC3EF9BFFEEB8
:104F70009AFEED99FDEC98FC1260A2E52325E02550
:104F8000E02434F8126157E52325E025E0247AF582
:104F900082E4340BF583E0F8A3E0F9A3E0FAA3E0A0
:104FA000FBC000E52325E025E02434F812614BD056
:104FB00000C3EF9BF52FEE9AF52EED99F52DEC98A9
:104FC000F52C8043E52325E025E0247AF582E434BE
:104FD0000BF583E0F8A3E0F9A3E0FAA3E0FBE523F7
:104FE00025E025E024C1F582E43409F583E0FCA343
:104FF000E0FDA3E0FEA3E0C39BF52FEE9AF52EEDB6
:1050000099F52DEC98F52C300C05C20C128C01E5AD
:105010002325E025E0246FF582E4340CF583C0837A
:10502000C082E0FCA3E0FDA3E0FEA3E0252FFFEE9D
:10503000352EFEED352DFDEC352CFCD082D08312C3
:105040006163E52325E025E0246FF582E4340CF567
:1050500083E0FCA3E0FDA3E0FEA3E0FF7BA07A8653
:1050600079017800C31260B0501C7FA07E867D015C
:105070007C00E52325E025E0246FF582E4340CF57F
:10508000831261638042E52325E025E0246FF582E9
:10509000E4340CF583E0FCA3E0FDA3E0FEA3E0FF15
:1050A0007B607A7979FE78FFD31260B0401A7F6016
:1050B0007E797DFE7CFFE52325E025E0246FF582E7
:1050C000E4340CF583126163E4F527F526F525F544
:1050D00024FFFEFDFCAB57AA56A955A854C3126085
:1050E000B07003025168E4FFFE7D02FCAB2FAA2ED4
:1050F000A92DA82CD31260B0500FE4FFFE7DFE7CDA
:10510000FFA82CC31260B05033AF2FAE2EAD2DAC24
:105110002C78081260EAAB57AA56A955A854125F1A
:105120007878081260EAE5272FF527E5263EF52670
:10513000E5253DF525E5243CF524802CAF2FAE2E4A
:10514000AD2DAC2CAB57AA56A955A854125F787850
:10515000101260EAE5272FF527E5263EF526E5251E
:105160003DF525E5243CF524E4FFFEFDFCAB5BAA00
:105170005AA959A858C31260B06038E52325E02524
:10518000E0246FF582E4340CF583E0FCA3E0FDA39A
:10519000E0FEA3E0FFA858125F7878101260EAE5FD
:1051A000272FF527E5263EF526E5253DF525E524BF
:1051B0003CF524E4FFFEFDFCAB5FAA5EA95DA85CA4
:1051C000C31260B06063E52325E025E0247AF58210
:1051D000E4340BF583E0F8A3E0F9A3E0FAA3E0FBE5
:1051E000E52325E025E02465F582E4340AF583E033
:1051F000FCA3E0FDA3E0FEA3E0C39BFFEE9AFEED5F
:1052000099FDEC98FCAB5FAA5EA95DA85C125F7883
:1052100078101260EAE5272FF527E5263EF526E50A
:10522000253DF525E5243CF524300C05C20C128CF7
:1052300001900969E0FEA3E0FFEE3395E0FDFCABD1
:1052400027AA26A925A824D31260B0401690096980
:10525000E0FEA3E0FFEE3395E08F278E26F525F5DF
:1052600024803C900969E0FEA3E0FFC3E49FFFE4D3
:105270009EFE3395E0FDFCAB27AA26A925A824C3F2
:105280001260B0501A900969E0FEA3E0FFC3E49FEA
:10529000FFE49EFE3395E08F278E26F525F524E565
:1052A0002325E025E02492F582E4340BF583E0F831
:1052B000A3E0F9A3E0FAA3E0FBC3E5279BF533E500
:1052C000269AF532E52599F531E52498F530E52360
:1052D00025E025E02477F582E4340CF583C083C013
:1052E00082E0FCA3E0FDA3E0FEA3E02533FFEE3562
:1052F00032FEED3531FDEC3530FCD082D0831261C9
:1053000063E52325E025E02477F582E4340CF5837A
:10531000E0FCA3E0FDA3E0FEA3E0FF7BA07A86799A
:10532000017800C31260B0501C7FA07E867D017C96
:1053300000E52325E025E02477F582E4340CF583AD
:105340001261638042E52325E025E02477F582E4BD
:10535000340CF583E0FCA3E0FDA3E0FEA3E0FF7BBB
:10536000607A7979FE78FFD31260B0401A7F607E50
:10537000797DFE7CFFE52325E025E02477F582E4B6
:10538000340CF583126163300C05C20C128C01E4FD
:10539000F52BF52AF529F528FFFEFDFCAB63AA6283
:1053A000A961A860C31260B06026AF33AE32AD31E0
:1053B000AC30A860125F7878101260EAE52B2FF508
:1053C0002BE52A3EF52AE5293DF529E5283CF52877
:1053D000E4FFFEFDFCAB67AA66A965A864C3126082
:1053E000B06038E52325E025E02477F582E4340C2D
:1053F000F583E0FCA3E0FDA3E0FEA3E0FFA86412B8
:105400005F7878101260EAE52B2FF52BE52A3EF540
:105410002AE5293DF529E5283CF528E4FFFEFDFCB9
:10542000AB6BAA6AA969A868C31260B06063E52380
:1054300025E025E02492F582E4340BF583E0F8A31F
:10544000E0F9A3E0FAA3E0FBE52325E025E0247DD5
:10545000F582E4340AF583E0FCA3E0FDA3E0FEA3BB
:10546000E0C39BFFEE9AFEED99FDEC98FCAB6BAAB6
:105470006AA969A868125F7878101260EAE52B2F94
:10548000F52BE52A3EF52AE5293DF529E5283CF5E9
:1054900028300C05C20C128C01E523701AFFFEFDAA
:1054A000FCAB2BAA2AA929A828C31260B04004D2B9
:1054B0000E801DC20E8019E4FFFEFDFCAB2BAA2A54
:1054C000A929A828C31260B04004D20F8002C20FDD
:1054D000300C05C20C128C0174FF7F9CFEFDFCABEE
:1054E0002BAA2AA929A828C31260B0500E74FF75F0
:1054F0002B9CF52AF529F528025863E47F64FEFD0C
:10550000FCAB2BAA2AA929A828D31260B050030209
:105510005863E4752B64F52AF529F5280258639041
:1055200009D9E07003025863200D03025863E52394
:1055300025E025E024C9F582E43409F583E0FCA3E5
:10554000E0FDA3E0FEA3E0F5278E268D258C2490B8
:105550000969E0FEA3E0FFEE3395E0FDFCAB27AA6E
:1055600026A925A824D31260B04016900969E0FE50
:10557000A3E0FFEE3395E08F278E26F525F52480F6
:105580003C900969E0FEA3E0FFC3E49FFFE49EFEB8
:105590003395E0FDFCAB27AA26A925A824C31260F9
:1055A000B0501A900969E0FEA3E0FFC3E49FFFE456
:1055B0009EFE3395E08F278E26F525F524300C05C9
:1055C000C20C128C01E52325E025E02492F582E44B
:1055D000340BF583E0F8A3E0F9A3E0FAA3E0FBC302
:1055E000E5279BF533E5269AF532E52599F531E572
:1055F0002498F530E52325E025E02477F582E4348E
:105600000CF583C083C082E0FCA3E0FDA3E0FEA311
:10561000E02533FFEE3532FEED3531FDEC3530FC63
:10562000D082D083126163E52325E025E02477F55D
:1056300082E4340CF583E0FCA3E0FDA3E0FEA3E0EC
:10564000FF7BA07A8679017800C31260B0501C7F7E
:10565000A07E867D017C00E52325E025E02477F50A
:1056600082E4340CF5831261638042E52325E02552
:10567000E02477F582E4340CF583E0FCA3E0FDA39D
:10568000E0FEA3E0FF7B607A7979FE78FFD31260B9
:10569000B0401A7F607E797DFE7CFFE52325E02502
:1056A000E02477F582E4340CF583126163300C0555
:1056B000C20C128C01E4F52BF52AF529F528FFFE22
:1056C000FDFCAB4BAA4AA949A848C31260B06026AA
:1056D000AF33AE32AD31AC30A848125F78781012DB
:1056E00060EAE52B2FF52BE52A3EF52AE5293DF565
:1056F00029E5283CF528E4FFFEFDFCAB4FAA4EA9A6
:105700004DA84CC31260B0603DE52325E025E024A0
:1057100077F582E4340CF583E0FCA3E0FDA3E0FE22
:10572000A3E0FF78061260EAA84C125F78780A12AC
:1057300060EAE52B2FF52BE52A3EF52AE5293DF514
:1057400029E5283CF528E4FFFEFDFCAB53AA52A94D
:1057500051A850C31260B0604FE52325E025E02436
:105760007FF582E4340CF583E0F8A3E0F9A3E0FAD6
:10577000A3E0FBC3E5339BFFE5329AFEE53199FDDB
:10578000E53098FCAB53AA52A951A850125F787823
:10579000101260EAE52B2FF52BE52A3EF52AE529C4
:1057A0003DF529E5283CF528300C05C20C128C018A
:1057B000AF33AE32AD31AC30E52325E025E0247FB8
:1057C000F582E4340CF583126163E523701AFFFE61
:1057D000FDFCAB2BAA2AA929A828C31260B040045B
:1057E000D20E801DC20E8019E4FFFEFDFCAB2BAA79
:1057F0002AA929A828C31260B04004D20F8002C28F
:105800000F300C5FC20C128C018058E52325E02577
:10581000E024D1F582E43409F583E0FCA3E0FDA3A4
:10582000E0FEA3E0F52B8E2A8D298C28E523701A43
:10583000FFFEFDFCAB2BAA2AA929A828C31260B041
:105840004004D20E801DC20E8019E4FFFEFDFCABA9
:105850002BAA2AA929A828C31260B04004D20F801D
:1058600002C20F300C05C20C128C01E47F64FEFDF5
:10587000FCAB2BAA2AA929A828D31260B0400AE4BD
:10588000752B64F52AF529F52874FF7F9CFEFDFC35
:10589000AB2BAA2AA929A828C31260B0500B74FF09
:1058A000752B9CF52AF529F528300C05C20C128CB5
:1058B0000190096DE064016037AF2BAE2AAD29ACD1
:1058C00028780A1260FEE47B64FAF9F812A406A8AC
:1058D00004A905AA06AB07900BECE0FFE4FCFDFE73
:1058E000125F78780A1260EA8F2B8E2A8D298C2815
:1058F000300E11300F077F0312AFF680167F0112B2
:10590000AFF6800F300F077F0212AFF68005E4FF7D
:1059100012AFF6300C05C20C128C01E5237029FF82
:10592000FEFDFCAB2BAA2AA929A828C31260B0400F
:10593000047F0180027FFF900B78EFF0AE2AAF2B3F
:1059400012AEA812AFCC8028E4FFFEFDFCAB2BAA60
:105950002AA929A828C31260B040047F0180027FD1
:10596000FF900B79EFF0AE2AAF2B12AEA812AFD298
:10597000300C05C20C128C0122EC4D6011E849700C
:1059800017ED33EC3304600DE4FCFFFEFD22E93338
:10599000E8330470F8025C42125C0D58046009E4BC
:1059A000CC24815006285009025C4C284003025C3C
:1059B00049C0E0EB4A7044B98006D0E0FB025C3895
:1059C000EF4E701CBD8008EBFFEAFEE9FD80EBE9BD
:1059D0008DF0A4FEE5F0025A62E9CDF9EAFEEBFF94
:1059E000EF89F0A4FCE5F0CE89F0A42EFFE435F0B9
:1059F000CD89F0A42DFEE435F08067EF4E7005BD33
:105A000080D780C3EF8BF0A4ACF0EE8BF0A42CFC1D
:105A1000E435F0F8EF8AF0A42CE5F038FCE433CB61
:105A20008DF0A42CFCE5F03BF8EE8AF0A42CFCE50C
:105A3000F038F8E433CF89F0A42CFCE5F038CF340B
:105A400000CE89F0A42FFFE5F03EFEE433C98DF0CF
:105A5000A42EFEE5F039CD8AF0A42FFFE5F03EFE3E
:105A6000E43DFD33D0E0FB50070BBB000F025C4C64
:105A7000EC2CFCEF33FFEE33FEED33FD025C240231
:105A80005C4CEC5D046005E859047003025C421252
:105A90005C0D580460F6EC4860F2EC7004FDFEFF0B
:105AA00022C860DB2481C85009C3986002500602F6
:105AB0005C499850CAF582E9294B4A7005AB8202CD
:105AC0005C3875F0007C1A7880C3EF9BEE9AED99F4
:105AD000400DC3EF9BFFEE9AFEED99FDE842F0DC2E
:105AE00023ACF0D0E0FFD0E0FED0E0FDAB8220E7B9
:105AF000101BEB60BAEC2CFCEF33FFEE33FEED3302
:105B0000FD025C24E803F830E705C0F075F000EF13
:105B10002FFFEE33FEED33FD40B830E7C280AA74AC
:105B2000F8CC6480CCC86480C8F58204604FC3EBB5
:105B30009FF5F0EA9E42F0E99D42F0E89C45F06056
:105B40003C501DE5825FFFE582D313CB5BCBF42B8A
:105B50005582FB50280ABA002409B9002008801D8C
:105B6000E5825BFBE582D313CF5FCFF4C3132F55E0
:105B700082FF50090EBE00050DBD00010CC3EB9F56
:105B8000F5F0EA9E42F0E99D42F0E89C45F060079E
:105B9000CC4820E701B3EC2275F020800E75F010A0
:105BA000800575F0087D007E007F003392D530D5EA
:105BB000031260A2EC334010EF33FFEE33FEED33FF
:105BC000FDEC33FCD5F0ED22E5F0247EA2D513CC1C
:105BD00092E7CDCEFF22EDD2E7CD33EC3392D52440
:105BE000814006E4FFFEFDFC22FCE4CFCECDCC24B8
:105BF000E0501174FF80EDC3CC13CCCD13CDCE1388
:105C0000CECF13CF0470F030D5DE0260A2E9D2E728
:105C1000C933E833F892D5EDD2E7CD33EC33FC50FD
:105C200002B2D522EC30E7100FBF000C0EBE000808
:105C30000DBD00040BEB6014A2D5EB13FCED92E755
:105C4000FD2274FFFCFDFEFF22E480F8A2D574FF64
:105C500013FC7D80E480EFF920E73624F9500379C6
:105C600007E4F42402FBE582158270021583DBF65B
:105C7000E024FB501BE96014E4F0E5821582700219
:105C80001583E004F0B40A08E4F0D9EE7401F00AD8
:105C900022C2D522ED33EC3392D5FA602AB4FF3319
:105CA000EDC2E77BFF60067A5C79B9E4227A5C7921
:105CB000C220D5047A5C79BD224E614E002B494E3C
:105CC00046002D494E4600E47A08F0A3DAFC7B003A
:105CD000740722C083C082ECC0E0EDC0E0EEC0E0FB
:105CE000EFC0E0EA75F010A4CAABF075F04DA42B3C
:105CF000FBE435F0FCEA2410FAEB34C5FBEC34D9B4
:105D0000FCEDC2E7FF75F056A4F42411C5F0F4349D
:105D1000C58FF0A42AE5F03BE43CF020E714125EC6
:105D2000C1D0E0FFD0E0FED0E0FDD0E0FC125A820E
:105D30008014F404125EC1D0E0FFD0E0FED0E0FD9C
:105D4000D0E0FC125979D082D083E0FAEDD2E7CDD1
:105D500033EC332482FBE4C3CF33CFCE33CECD3309
:105D6000CD33DBF37B0775F00A846004F0A31B0AD4
:105D7000E5F0F0A38FF0740AA4FFACF08EF0740A83
:105D8000A42CFEACF050010C8DF0740AA42CFDE4A0
:105D900035F0F0A3DBDE740722025C42E86480F891
:105DA000E933E83360110460F0ED33EC337009E857
:105DB000FCE9FDEAFEEBFF220460DED3EB9FEA9EE6
:105DC000E99DE8C2E78CF0C2F795F0400CE8CCF80A
:105DD000E9CDF9EACEFAEBCFFB125C0D85D0F05895
:105DE00004700320D5B3E80470075002B2D5025CFA
:105DF0004C92D5EC0460F7E4CCC0E0C398F8603B6B
:105E000094186008400DD0E0FB025C24E4FBFAC962
:105E1000FC8028E830E406E4C9FBE4CAFCE830E38F
:105E200005E4C9CACBFCE854076010F8C3E913F9CC
:105E3000EA13FAEB13FBEC13FCD8F130F52FC3E4B3
:105E40009CFCEF9BFFEE9AFEED99FDD0E0FBEF4E40
:105E50004D4C701222DB03025C49EC2CFCEF33FF4B
:105E6000EE33FEED33FDED30E7EB025C24EF2BFF6C
:105E7000EE3AFEED39FDD0E0FB50130BBB00030200
:105E80005C4CED13FDEE13FEEF13FFEC13FC025C14
:105E9000243F8000004120000042C80000447A00F6
:105EA00000461C400047C35000497424004B18961C
:105EB000804CBEBC205A0E1BCA6753C21C749DC5C1
:105EC000AEFB60065407601C2323125EEFEB5438D0
:105ED0006009125EDB125EEA125979ECF8EDF9EE18
:105EE000FAEFCB22EB125EEA80F1543803241C90C7
:105EF0005E91FE93FC0EEE93FD0EEE930ECE93FF9D
:105F000022BB010689828A83E0225002E722BBFE7F
:105F100002E32289828A83E49322BB010CE5822971
:105F2000F582E5833AF583E0225006E92582F8E61A
:105F300022BBFE06E92582F8E222E58229F582E508
:105F4000833AF583E49322BB010689828A83F02297
:105F50005002F722BBFE01F322BB010A89828A8329
:105F6000F0E5F0A3F0225006F709A7F01922BBFED6
:105F700006F3E5F009F31922E88FF0A4CC8BF0A426
:105F80002CFCE98EF0A42CFC8AF0EDA42CFCEA8E0B
:105F9000F0A4CDA8F08BF0A42DCC3825F0FDE98F2E
:105FA000F0A42CCD35F0FCEB8EF0A4FEA9F0EB8F25
:105FB000F0A4CFC5F02ECD39FEE43CFCEAA42DCEF2
:105FC00035F0FDE43CFC2275F008758200EF2FFFF0
:105FD000EE33FECD33CDCC33CCC58233C5829BEDC1
:105FE0009AEC99E58298400CF582EE9BFEED9AFDC5
:105FF000EC99FC0FD5F0D6E4CEFBE4CDFAE4CCF975
:10600000A88222B800C1B90059BA002DEC8BF084E7
:10601000CFCECDFCE5F0CBF97818EF2FFFEE33FEB5
:10602000ED33FDEC33FCEB33FB10D703994004EB6D
:1060300099FB0FD8E5E4F9FA227818EF2FFFEE3339
:10604000FEED33FDEC33FCC933C910D7059BE99A4B
:106050004007EC9BFCE99AF90FD8E0E4C9FAE4CCDC
:10606000FB2275F010EF2FFFEE33FEED33FDCC3346
:10607000CCC833C810D7079BEC9AE899400AED9B2F
:10608000FDEC9AFCE899F80FD5F0DAE4CDFBE4CC0E
:10609000FAE4C8F922CFF4CFCEF4CECDF4CDCCF4CF
:1060A000CC22C3E49FFFE49EFEE49DFDE49CFC2221
:1060B000EB9FF5F0EA9E42F0E99D42F0EC6480C867
:1060C00064809845F022EB9FF5F0EA9E42F0E99D4E
:1060D00042F0E89C45F022E8600FECC313FCED139E
:1060E000FDEE13FEEF13FFD8F122E86010ECA2E7FB
:1060F00013FCED13FDEE13FEEF13FFD8F022E86062
:106100000FEFC333FFEE33FEED33FDEC33FCD8F17C
:1061100022BB010789828A830263E95005E9F802FC
:10612000614BBBFE05E9F80263F589828A8302644C
:1061300001BB010789828A830261635005E9F80285
:106140006157BBFE05E9F802641122E6FC08E6FD92
:1061500008E6FE08E6FF22ECF608EDF608EEF60883
:10616000EFF622ECF0A3EDF0A3EEF0A3EFF022F8AF
:10617000E0FBA3A3E0F925F0F0E58215827002159B
:1061800083E0FA38F022EBF0A3EAF0A3E9F022D0A2
:1061900083D082F8E4937012740193700DA3A393DB
:1061A000F8740193F5828883E4737402936860EF56
:1061B000A3A3A380DFE50F2582F582E50E3583F5E5
:1061C00083B50E0485820F2210AF0685820FF50E6F
:1061D0002285820FF50ED2AF22EC8EF0A4CCC5F052
:1061E000CCCDF8EFA4CEC5F02DFDE43CFCE8A42E08
:1061F000C8C5F03DFDE43CFCEFA4FFE5F028FEE45B
:106200003DFDE43CFC22E709F608DFFA8046E70999
:10621000F208DFFA803E88828C83E709F0A3DFFA78
:106220008032E309F608DFFA806EE309F208DFFA4C
:10623000806688828C83E309F0A3DFFA805A898222
:106240008A83E0A3F608DFFA804E89828A83E0A37E
:10625000F208DFFA804280D280FA80C680D480556E
:1062600080F28029801080A680EA809A80A880DA57
:1062700080E280CA802988848C8589828A83E4931D
:10628000A30586F0A30586DFF5DEF3800B89828AFD
:1062900083E493A3F608DFF9ECFAA9F0EDFB22887A
:1062A000848C8589828A83E0A30586F0A30586DF36
:1062B000F6DEF480E389828A83E493A3F208DFF9AF
:1062C00080D688F0EF60010E4E60CD88F0ED24029C
:1062D000B4040050C3F582EB2402B4040050B92387
:1062E0002345822390625673E709F60870FA8046C8
:1062F000E709F20870FA803E88828C83E709F0A3F0
:1063000070FA8074E309F60870FA806CE309F20809
:1063100070FA806488828C83E309F0A370FA805855
:1063200089828A83E0A3F60870FA804C89828A8386
:10633000E0A3F20870FA804080D280FA80C680D450
:10634000805180F28027801080A680EA809A80A801
:1063500080DA80E280CA802788848C8589828A835B
:10636000E493A30586F0A3058670F5800B89828AE5
:1063700083E493A3F60870F9ECFAA9F0EDFB228808
:10638000848C8589828A83E0A30586F0A3058670C4
:10639000F680E589828A83E493A3F20870F980D8B5
:1063A00088F0ED2402B4040050CEF582EB2402B450
:1063B000040050C4232345822390633873C5F0F84A
:1063C000A3E028F0C5F0F8E582158270021583E09D
:1063D00038F022A3F8E0C5F025F0F0E582158270D0
:1063E000021583E0C838F0E822E0FCA3E0FDA3E05A
:1063F000FEA3E0FF22E2FC08E2FD08E2FE08E2FF65
:1064000022E493FC740193FD740293FE740393FFE2
:1064100022ECF208EDF208EEF208EFF222205945E4
:10642000530000204E4F00002055736200002045AD
:106430006E636F6465722033000020506F7369745F
:10644000696F6E00002050574D0000204375727236
:10645000656E74000020506F736974696F6E2061FF
:106460006E642063757272656E7400002044656608
:106470006C656374696F6E0000204465666C6563CB
:1064800074696F6E20616E642063757272656E74DC
:106490000000000D0A004669726D77617265207612
:1064A000657273696F6E3A200051424144562076FE
:1064B000362E312E32206D6F642E2045786F536555
:1064C0006E7365002E0D0A0D0A004445564943457A
:1064D00020494E464F0D0A0049443A2025640D0AD2
:1064E000004E756D626572206F662073656E736F06
:1064F00072733A2025640D0A0050574D204C696D87
:1065000069743A2025640D0A004D4F544F522049BA
:106510004E464F0D0A004D6F746F722072656665AE
:1065200072656E63657300202D20506F7369746906
:106530006F6E3A2000202D2043757272656E747361
:106540003A2000202D2050776D3A2000202D204445
:1065500065666C656374696F6E2000256420004D6C
:106560006F746F7220656E61626C65643A200059C9
:1065700045530D0A004E4F0D0A000D0A4D4541537B
:106580005552454D454E545320494E464F0D0A0035
:1065900053656E736F722076616C75653A0D0A00F3
:1065A0002564202D3E20256400566F6C746167655C
:1065B00020286D56293A20256C6400437572726557
:1065C0006E74203120286D41293A20256C640043E7
:1065D000757272656E74203220286D41293A20252B
:1065E0006C64000D0A4445564943452050415241D0
:1065F0004D45544552530D0A0050494420436F6E97
:1066000074726F6C6C65723A0D0A0050202D3E203A
:1066100025660D0A0049202D3E2025660D0A0044FE
:10662000202D3E2025660D0A0043757272656E743A
:106630002050494420436F6E74726F6C6C65723ADF
:106640000D0A005374617274757020616374697609
:106650006174696F6E3A205945530D0A0053746195
:10666000727475702061637469766174696F6E3AD3
:10667000204E4F0D0A00496E707574206D6F646571
:106680003A205553420D0A00496E707574206D6FA3
:1066900064653A2053656E736F7220330D0A0043B0
:1066A0006F6E74726F6C204D6F64653A2000506F8E
:1066B000736974696F6E0D0A0050574D0D0A0043DF
:1066C000757272656E740D0A00506F736974696F2C
:1066D0006E20616E642063757272656E740D0A00BF
:1066E0004465666C656374696F6E0D0A0044656687
:1066F0006C656374696F6E20616E6420637572727D
:10670000656E740D0A0053656E736F722072657347
:106710006F6C7574696F6E3A0D0A004D6561737523
:1067200072656D656E74204F66667365743A0D0A06
:10673000002564202D3E20256C64004D6561737535
:1067400072656D656E74204D756C7469706C6965E9
:10675000723A0D0A002564202D3E20256600506FF8
:10676000736974696F6E206C696D697420616374FC
:106770006976653A20256400506F736974696F6E9D
:10678000206C696D6974206D6F746F722025643A96
:1067900020696E66202D3E20256C642020007375D4
:1067A00070202D3E20256C640D0A004D6178207309
:1067B000746966666E6573733A202564004375726A
:1067C00072656E74206C696D69743A20256400648A
:1067D000656275673A20256C640031202D20446580
:1067E000766963652049443A0032202D20506F734A
:1067F0006974696F6E20504944205B502C20492CED
:1068000020445D3A0033202D2043757272656E740A
:1068100020504944205B502C20492C20445D3A00F4
:1068200034202D2053746172747570204163746933
:10683000766174696F6E3A000000000035202D20EB
:10684000496E707574206D6F64653A000000000039
:106850000000000000000036202D20436F6E74728F
:106860006F6C206D6F64653A00000000000000004E
:1068700000000000000000000000000000003720C1
:106880002D205265736F6C7574696F6E733A0038A2
:10689000202D204D6561737572656D656E74204F96
:1068A0006666736574733A0039202D204D756C74DB
:1068B00069706C696572733A003130202D20506F19
:1068C000732E206C696D6974206163746976653A12
:1068D00000000000003131202D20506F732E206CFD
:1068E000696D697473205B696E662C207375705DC9
:1068F0003A003132202D204D617820737465707319
:10690000205B6E65672C20706F735D3A0031332019
:106910002D2043757272656E74206C696D69743ACE
:106920000030202D3E205573620A31202D3E205329
:1069300068616674277320706F736974696F6E2065
:10694000636F6E74726F6C7320746865206D6F7402
:106950006F72730A0030202D3E20506F7369746986
:106960006F6E0A31202D3E2050574D0A32202D3EA9
:106970002043757272656E740A33202D3E20506F6D
:10698000736974696F6E2D43757272656E740A3423
:10699000202D3E204465666C656374696F6E0A3510
:1069A000202D3E204465666C656374696F6E2D43CF
:1069B000757272656E740A0030202D3E2044656148
:1069C00063746976617465205B4E4F5D0A31202DDA
:1069D0003E204163746976617465205B5945535D5F
:1069E0000A004209358000647F04B6000000000000
:1069F0000000000000000000000000000000000097
:106A00000000000000000000000000000000000086
:106A10000000000000000000000000000000000076
:106A20000000000000000000000000000000000066
:106E600000000000000000000000010800420C6D5E
:106E70000001C190410CB100410D7400410D75003D
:106E8000410D7600410D7700410D7800410D7900EC
:106E9000410D7A00410D7B00410D4300410D45003D
:106EA000410D2100410D4200410D2000410D4400E3
:106EB000410D5100410D4C00410D4700410D4D0069
:106EC000410D4601410D7CFF410D7D00410D7E00CD
:106ED000410D7F00410D6A80410D697F440D6500C1
:106EE000000400440D5C02DC6C00440D570000BB44
:106EF00080410D5B30440D615DC00000410D80FF9D
:106F0000430D6B000000410D810000E56E2489F502
:106F100082E43404F583E0056E2290048630080391
:106F2000900489E475F00112616F025F012001E9AC
:106F30007F2ED2018018EF540F2490D43440D4FF18
:106F400030050BEF24BFB41A0050032461FFE56F36
:106F50006002156F0572E5727002057130080E90BF
:106F60000486E475F00112616FEF025F4702A8F03A
:106F70007403D2088003E4C208F56E90048612619F
:106F800086E4F56FF571F572E56F60077F20126F8B
:106F90004E80F57570FFC202C201C203C204C20670
:106FA000C207C209126F1AFF700D3008057F001268
:106FB0006F5FAF72AE7122B4255FC2D5C205126F8A
:106FC0001AFF24D0B40A00501A75F00A786F30D531
:106FD0000508B6FF0106C6A426F620D5047002D225
:106FE0000480D924CFB41A00EF5004C2E5D20502C0
:106FF0007251D20280C6D20180C0D20380BCD2D5E9
:1070000080BAD20680B47F20126F4E20030774012D
:10701000B56F0040F1126F0BFF126F4E026F88D2F6
:1070200009D2078095126F0BFB126F0BFA126F0BD0
:10703000F94A4B7006794F7A737BFF20032EE56F78
:10704000602A7E008E82758300125F1A60060EEE43
:10705000657070F0C2D5EBC0E0EAC0E0E9C0E0EED8
:107060001272B2D0E0F9D0E0FAD0E0FB125F01FF7B
:1070700060AAEBC0E0EAC0E0E9C0E0126F4ED0E0E9
:107080002401F9D0E03400FAD0E0FBE5700460DCC4
:10709000D570D98087D20380A212729460F7E57010
:1070A000700104125C57A970600DE570600914F559
:1070B0007012733CEF60F3EA30E702F404C39950B6
:1070C00079EAF425700430E701E404F570800D12CC
:1070D000729460C1EA05702570125C57EA9004B59D
:1070E000F030E701E4257004D57004200601141285
:1070F00072B2E4C0E012733C9004B5E0601320E784
:107100000714F0126F36802204F0D0E014C0E07F44
:1071100000126F36E5706007126F2D1570800B300E
:107120000603126F2DD0E0026F88D0E00480C412F5
:107130007294609EE57004125C579004B5EAF0E525
:107140007020060260010424041272B274FF04C0AD
:10715000E012733C126F36E5702006026003126F76
:107160002DD0E0B570E87F45126F409004B5E07F08
:107170002B30E7047F2DF404C0E0126F4ED0E07591
:10718000F00A84C0F0126F37D0E0126F37026F88B8
:10719000791080027908C207C2098008D2D5790A1D
:1071A0008004790AC2D5E570047002F570E4FAFD36
:1071B000FEFF126F0BFC7B08200213126F0BFD7B8E
:1071C0001030010A126F0BFE126F0BFF7B20EC33A5
:1071D00082D592D55013C3E43001069FFFE49EFE92
:1071E000E42002039DFDE49CFCE4CBF8C202EC70B9
:1071F0000CCFCECDCCE824F8F870F38017C3EF3372
:10720000FFEE33FEED33FDEC33FCEB33FB99400234
:10721000FB0FD8E9EB300205F8D0E0C448B202C059
:10722000E00AEC4D4E4F78207B0070C2EAB570004A
:1072300040BCC0E01272B4D0F0D0E0200204C4C060
:10724000E0C4B202C0F0126F37D0F0D5F0EB026F9D
:107250008812618F7025537190586FF64C6FF2420F
:1072600071944F719C44719C49700B4371A255708D
:10727000CF46712F45709947736F506FFA2D6FFE8F
:107280002E70212B700223701F2073582A6FBA486A
:1072900000007019E570B4FF03757006126F0BFCE7
:1072A000126F0BFD126F0BFE126F0BFF9004AE02FC
:1072B0005C94790AA2D5200414300609B91002049E
:1072C00004B9080104A2D520070250010420036874
:1072D0009203B56F005034C0E07F203004197F3036
:1072E000A20372077206500F12730BC203C207C2C9
:1072F00006C2097F30800F300603E9C0E0126F4EEE
:10730000300603D0E0F9D0E0B56FCC3006177F30FF
:10731000B9100C126F4E7F583005077F788003B983
:107320000803126F4E3003057F2D026F4E7F202021
:1073300009F87F2B2007F322920380CF7F00B40748
:1073400000500B24AEF582E43404F583E0FF2228DC
:107350006E756C6C2900D202126F0B3002F8C202FB
:10736000786F30D50108F6026FBA2D504349581294
:107370006F0B2403B405004001E490736A93126F0D
:107380003F743A126F3FD204756F04027190756EAC
:107390000290096CE0600302765D900A2FE0FCA386
:1073A000E0FDA3E0FEA3E0FF90098CE0F8A3E0F984
:1073B000A3E0FAA3E0FB125B1F6058900B55E0FCC2
:1073C000A3E0FDA3E0FEA3E0FFEC125B9890098C24
:1073D000E0F8A3E0F9A3E0FAA3E0FB125A82125B03
:1073E000D6900B55126163900B55E0FCA3E0FDA312
:1073F000E0FEA3E0FFEC125B98900A2FE0F8A3E018
:10740000F9A3E0FAA3E0FB125979125BD6900B5571
:10741000126163900A33E0FCA3E0FDA3E0FEA3E069
:10742000FF900990E0F8A3E0F9A3E0FAA3E0FB12D3
:107430005B1F6058900B59E0FCA3E0FDA3E0FEA3A6
:10744000E0FFEC125B98900990E0F8A3E0F9A3E06C
:10745000FAA3E0FB125A82125BD6900B59126163B9
:10746000900B59E0FCA3E0FDA3E0FEA3E0FFEC12CB
:107470005B98900A33E0F8A3E0F9A3E0FAA3E0FBFD
:10748000125979125BD6900B59126163900A17E07A
:10749000FCA3E0FDA3E0FEA3E0FF900974E0F8A3E5
:1074A000E0F9A3E0FAA3E0FBC31260B06057900BD1
:1074B00055E0F8A3E0F9A3E0FAA3E0FBC000C001A7
:1074C000C002C003900974E0F8A3E0F9A3E0FAA3B6
:1074D000E0FB900A17E0FCA3E0FDA3E0FEA3E0C3FD
:1074E0009BFFEE9AFEED99FDEC98FCD003D002D004
:1074F00001D000EB2FFFEA3EFEE93DFDE83CFC90A9
:107500000B55126163900A1BE0FCA3E0FDA3E0FEB3
:10751000A3E0FF900978E0F8A3E0F9A3E0FAA3E084
:10752000FBC31260B06057900B59E0F8A3E0F9A3D9
:10753000E0FAA3E0FBC000C001C002C003900978DC
:10754000E0F8A3E0F9A3E0FAA3E0FB900A1BE0FC5B
:10755000A3E0FDA3E0FEA3E0C39BFFEE9AFEED993E
:10756000FDEC98FCD003D002D001D000EB2FFFEA55
:107570003EFEE93DFDE83CFC900B59126163900929
:10758000A4E0700302765DA3E0FCA3E0FDA3E0FEAF
:10759000A3E0FF900B55E0F8A3E0F9A3E0FAA3E025
:1075A000FBC31260B050149009A5E0FCA3E0FDA35A
:1075B000E0FEA3E0FF900B551261639009A9E0FC87
:1075C000A3E0FDA3E0FEA3E0FF900B59E0F8A3E0E9
:1075D000F9A3E0FAA3E0FBC31260B050149009A92C
:1075E000E0FCA3E0FDA3E0FEA3E0FF900B591261D5
:1075F000639009ADE0FCA3E0FDA3E0FEA3E0FF90F3
:107600000B55E0F8A3E0F9A3E0FAA3E0FBD3126086
:10761000B040149009ADE0FCA3E0FDA3E0FEA3E0C0
:10762000FF900B551261639009B1E0FCA3E0FDA34C
:10763000E0FEA3E0FF900B59E0F8A3E0F9A3E0FA25
:10764000A3E0FBD31260B040149009B1E0FCA3E0CA
:10765000FDA3E0FEA3E0FF900B591261639009DBEC
:10766000E0FF900938E0FE6F60418E71E4FFFE128A
:107670009449EF601C756F017570017B007A007989
:107680006FE56EFD7C00900008E571F01297B18007
:107690002FE4F56FF570FB7A00796FE56EFD7C00E5
:1076A000900008E571F01297B18015E4FFFE129486
:1076B00049EF60077F0112AB928005E4FF12AB92A5
:1076C000900BDFE004F07006900BDEE004F0228FF8
:1076D00023E523C3940640030279EF300A227B0698
:1076E000AF031BEF6018E4FFFEFDFCEB25E025E097
:1076F0002487F582E4340CF58312616380E2C20AC8
:10770000E52314602B14604014605514606A146003
:107710007F240560030277A612AF1E78011260D79E
:10772000EFEEED5403FDE4FC9000021261638076FD
:1077300012AF2878011260D7EFEEED5403FDE4FCA0
:10774000900002126163805E12AF1478011260D75C
:10775000EFEEED5403FDE4FC9000021261638046FD
:1077600012AF3C78011260D7EFEEED5403FDE4FC5C
:10777000900002126163802E12AF4678011260D72A
:10778000EFEEED5403FDE4FC9000021261638016FD
:1077900012AF5078011260D7EFEEED5403FDE4FC18
:1077A0009000021261637B017A007902129E9F4071
:1077B000030279EF900002E0FCA3E0FDA3E0FEA34A
:1077C000E054C0FFEEED5403FDE42FFFE43EFEED78
:1077D00034FEFDE434FFFC78021260D7A31261632B
:1077E000E52325E025E02417F582E4340AF583E05B
:1077F000A3E0A3E0FEA3E0FBAA06900006E0A3E05E
:10780000A3E0FEA3E02BFFEE3AFE3395E0FDFC90F3
:107810000006126163301027900006E0FCA3E0FD33
:10782000A3E0FEA3E0FFE52325E025E02487F58221
:10783000E4340CF583126163E523B40502C210E55C
:107840002325E025E02487F582E4340CF583E0F875
:10785000A3E0F9A3E0FAA3E0FB900006E0FCA3E0BC
:10786000FDA3E0FEA3E0C39BFFEE9AFEED99FDECC5
:1078700098FCA3126163E4FF7EC0FDFC90000AE067
:10788000F8A3E0F9A3E0FAA3E0FBD31260B0401044
:10789000749A2523F582E4340BF583E014F08068B4
:1078A0007F007E407DFF7CFF90000AE0F8A3E0F9B6
:1078B000A3E0FAA3E0FBC31260B05010749A252332
:1078C000F582E4340BF583E004F0803C90000AE09C
:1078D000A3E0A3E0FEA3E0FF12AEA8D3EF9400EE76
:1078E000648094C04022749F2523F582E4340CF513
:1078F00083E004F0749F2523F582E4340CF583E0E3
:10790000C3940A50030279EF749F2523F582E4346F
:107910000CF583E4F0900006E0FCA3E0FDA3E0FE9C
:10792000A3E0FFE52325E025E02487F582E4340C7D
:10793000F583126163900006E0F8A3E0F9A3E0FA92
:10794000A3E0FBC000749A2523F582E4340BF58391
:10795000E0FF3395E0FEFDFC78101260FED000EBF6
:107960002FFFEA3EFEE93DFDE83CFC900006126177
:1079700063E52325E025E0248CF582E43409F583D2
:10798000E0FCA3E0FDA3E0FEA3E0FFE4FBFA7980C6
:10799000783F125B1F6038900006E0FCA3E0FDA377
:1079A000E0FEA3E0FFEC125B98E52325E025E02450
:1079B0008CF582E43409F583E0F8A3E0F9A3E0FA5A
:1079C000A3E0FB125979125BD69000061261639016
:1079D0000006E0FCA3E0FDA3E0FEA3E0FFE5232515
:1079E000E025E0247AF582E4340BF583126163220A
:1079F000900A64E024FE7003027AB4147003027BE0
:107A0000AD146076147003027B9A24046003027B39
:107A1000CE12AFA4900939E0FCA3E0FDA3E0FEA3E1
:107A2000E0FF900CA512616390093DE0FCA3E0FD2E
:107A3000A3E0FEA3E0FF900CA9126163900941E06E
:107A4000FCA3E0FDA3E0FEA3E0FF900CAD12616398
:107A5000E4FFFEFDFC900B55126163E4FFFEFDFCAC
:107A6000900B59126163900B6DE0540370057F0316
:107A700012B044900A647404F022900CB1E004F057
:107A8000E0640A6003027BCEF07F997E19FDFC90D2
:107A90000939126163E4FFFEFDFC90093D12616348
:107AA000E47FCC7E4CFDFC900941126163900A6436
:107AB0007402F022900B55E0FCA3E0FDA3E0FEA3CE
:107AC000E0245BFFE43EFEE43DFDE43CFC900B550E
:107AD000126163900B59E0FCA3E0FDA3E0FEA3E07C
:107AE000C3945BFFEE9400FEED9400FDEC9400FC6B
:107AF000900B59126163E47FE87E03FDFC900B92CA
:107B0000E0F8A3E0F9A3E0FAA3E0FBD31260B050E1
:107B10001DE47FE87E03FDFC900B96E0F8A3E0F9FE
:107B2000A3E0FAA3E0FB1260B05003027BCE900901
:107B3000C1E0A3E0A3E0FFA3E0900A58CFF0A3EFD9
:107B4000F0900CA5E0FCA3E0FDA3E0FEA3E0FF9015
:107B50000939126163900CA9E0FCA3E0FDA3E0FEEB
:107B6000A3E0FF90093D126163900CADE0FCA3E03F
:107B7000FDA3E0FEA3E0FF900941126163E4FFFE74
:107B8000FDFC900B55126163E4FFFEFDFC900B5968
:107B9000126163900A647405F022900CB1E004F065
:107BA000E0640A7029F0900A647403F022900B6D6F
:107BB000E054037004FF12B0447F087E0012944921
:107BC000E4FFFE129449E4900A64F012AF9D229003
:107BD0000A10E0FBB4022B900AD1E0FEA3E0FFEE16
:107BE0003395E0FDFC900B5D126163900AD3E0FEDB
:107BF000A3E0FFEE3395E0FDFC900B6112616302A0
:107C00007C98EBB4012A900AD1E0FEA3E0FFEE33AA
:107C100095E0FDFC900B65126163900AD3E0FEA332
:107C2000E0FFEE3395E0FDFC900B69126163806824
:107C3000900AD1E0FEA3E0FFEE3395E0FDFC900B4F
:107C400055126163900B55E0FCA3E0FDA3E0FEA399
:107C5000E0FF1260A2900A11E0F9F81260FE900BAA
:107C600055126163900AD3E0FEA3E0FFEE3395E086
:107C7000FDFC900B59126163900B59E0FCA3E0FDF1
:107C8000A3E0FEA3E0FF1260A2900A12E0F9F8124E
:107C900060FE900B591261639009A4E07003027DAD
:107CA00088900A10E0FF64036006EF6003027D889D
:107CB0009009A5E0FCA3E0FDA3E0FEA3E0FF900B8C
:107CC00055E0F8A3E0F9A3E0FAA3E0FBC31260B02B
:107CD00050149009A5E0FCA3E0FDA3E0FEA3E0FFA3
:107CE000900B551261639009A9E0FCA3E0FDA3E0AD
:107CF000FEA3E0FF900B59E0F8A3E0F9A3E0FAA39C
:107D0000E0FBC31260B050149009A9E0FCA3E0FDB1
:107D1000A3E0FEA3E0FF900B591261639009ADE070
:107D2000FCA3E0FDA3E0FEA3E0FF900B55E0F8A369
:107D3000E0F9A3E0FAA3E0FBD31260B0401490098D
:107D4000ADE0FCA3E0FDA3E0FEA3E0FF900B551225
:107D500061639009B1E0FCA3E0FDA3E0FEA3E0FFB6
:107D6000900B59E0F8A3E0F9A3E0FAA3E0FBD312EB
:107D700060B040149009B1E0FCA3E0FDA3E0FEA3D5
:107D8000E0FF900B59126163900BC7E004F070069E
:107D9000900BC6E004F02212B08012A2DDE47F64F2
:107DA000FEFDFC1299DF7F0112B04A12A9A712ACA6
:107DB000A512A74612A83D12AD047EB07F8B12AA71
:107DC0000A12AC0D7EB07F8812AA2912ABFAE4FF2A
:107DD00012AFCCE4FF12AFD2E4FF12AFF6E4FF1211
:107DE000B04412AC3312AC4612AC5912AC2012ACF7
:107DF000B812ACCB12ACDE12AAD57F0112B062E48D
:107E0000900006F0A3F0FBFA7D017F0212A37590AB
:107E10000000EFF012A4CB900001EFF0E0FBFF9028
:107E200000067486F07D067C00129A677B017A0B4F
:107E30007972E9EAE4AB01900001E0FF7D107C4E2D
:107E4000129C5A900000E0FFA3E0FD12AA67900088
:107E500000E0FF7D0112A32AE4FF12B05012AC7FB4
:107E600012AC6CD2AF9044F474FDF0E47F0AFEFDD6
:107E7000FC1299DF7B02AF031BEF6018E4FFFEFDED
:107E8000FCEB25E025E024C1F582E43409F58312FA
:107E9000616380E27B06AF031BEF6024E4FFFEFD1D
:107EA000FCEB25E025E0247AF582E4340BF583121F
:107EB0006163749A2BF582E4340BF583E4F080D689
:107EC00078557C0B7D017B017A0979C17E007F1991
:107ED0001262C290096BE09009D9F012A142E4FF4E
:107EE00012AFFCE4900B50F0A3F0900B54F090090B
:107EF000D9E0FF12B044E4900BECF0C20D900A649C
:107F0000F0C20A900A5BE070077F0112AFDE8005C5
:107F1000E4FF12AFDEE4FF12B032128F6212AFF054
:107F2000EF7020300C0E7F0112AFD8C20CC20B12C2
:107F30008C0180E9300BE67F0112AFD8E4900B6D25
:107F4000F080DA7F0112B03212AFF0EF640160F816
:107F500012ABE6EF30E7BE12A83D80B922900003D5
:107F6000ECF0A3EDF0A3EAF0A3EBF0900008E0FE44
:107F7000D3940050030280FDEED3940140030280AD
:107F8000FDEF24FC601524FD603C14606224FE704B
:107F90000302801824096003028041900007E0D3A7
:107FA000940F40117B0C7A01791812AE849000096D
:107FB000EFF00280467B0C7A01791C12AE849000AF
:107FC00009EFF0028046900007E0D3940F40107B49
:107FD0000C7A01791912AE84900009EFF080677B6A
:107FE0000C7A01791D12AE84900009EFF080579051
:107FF0000007E0D3940F40107B0C7A01791A12AE7F
:1080000084900009EFF0803E7B0C7A01791E12AE5D
:1080100084900009EFF0802E900007E0D3940F4089
:10802000107B0C7A01791B12AE84900009EFF0806E
:10803000157B0C7A01791F12AE84900009EFF08055
:1080400005E4900009F0900009E0FF3395E0FEFDA3
:10805000FCE47B20FAF9F8125F78A804A905AA06C7
:10806000AB07900003E0FEA3E0FFE4FCFDEB2FFF75
:10807000EA3EFEED39FDEC38FCAB07AA06A905F88F
:10808000A3E0FEA3E0FFE4FCFD125F78E4FB7A804E
:10809000F9F8126003AD07AC06900007E0C3940E38
:1080A000502FE0FBC3740E9BFFEDA807088005CEA0
:1080B000C313CE13D8F9FDAC06EB04FF900008E023
:1080C00075F003A4244DF582E4340DF583EFF080C0
:1080D00014900008E075F003A4244DF582E4340DFB
:1080E000F583740FF0AF05900008E075F003A42449
:1080F0004BF582E4340DF583ECF0A3EFF022900A07
:10810000D0E0900002F07B017A0A79D0900B50E029
:10811000A3E014FD12A779900B50E0FCA3E024CF5C
:10812000F582740A3CF583E0B50703D38001C340B0
:1081300006E4900B54F022900002E012618F82114D
:108140000081E201821603821B0482330581C60688
:10815000825B0982470A827E0B81F60C81AE8081A8
:10816000BA81819C82818A83818484819085819671
:108170008681A28781A889828A8A81B48F81C090F2
:108180000000828D129AEE02828D129E2F02828D45
:1081900012A09402828D12970B02828D127BCF0265
:1081A000828D12841502828D129F7502828D12912A
:1081B0008302828D12A44A02828D12A5BE02828D94
:1081C00012A9EA02828D900AD1E0FEA3E0FF12AA72
:1081D000BC900BD7E004F07006900BD6E004F002E0
:1081E000828D1298CB900BD9E004F07006900BD8DA
:1081F000E004F002828D900AD1E0FEA3E0FF123885
:10820000F3900BDBE004F07006900BDAE004F080F2
:108210007C12A963807712738E80727F087E0012B1
:108220009449EF60077F0112AB928061E4FF12ABCB
:1082300092805A12A3BFEF60077F0112AB92804D6C
:10824000E4FF12AB928046128293EF60077F011227
:10825000AB928039E4FF12AB9280327F0112AB9275
:10826000E47FE87E03FDFC1299DFE4FF12B04AE4EC
:108270007FE87E03FDFC1299DF12AF32800F900A77
:10828000647401F0FF12AB928003128713E4900B29
:1082900054F0229009DB7401F07F677EE67DFF7C5D
:1082A000FFA3126163E4FFFEFDFC9009E01261632D
:1082B0007F347E337DFF7CFF9009E4126163E4FF2D
:1082C000FE7D03FC9009E8126163E4FFFEFDFC9073
:1082D00009EC126163E4FFFEFDFC9009F01261639A
:1082E0007F347EB37DFF7CFF9009F4126163E4FF6D
:1082F000FEFDFC9009F81261637FE27EFA7DFF7C4F
:10830000FF9009FC126163E47FCC7ECCFDFC900AF7
:1083100000126163E4FFFEFDFC900A04126163E455
:108320007FCC7E0CFDFC900A08126163E4900A0E7B
:10833000F0A3F0A3F0900A5B74FAF0900A4774017E
:10834000F0E4FBEBC3940250347FD07E8A7DFF7C47
:10835000FFEB25E025E02448F582E4340AF583129A
:108360006163E47F307E75FDFCEB25E025E0245061
:10837000F582E4340AF5831261630B80C6E4FBEBFB
:10838000C39406504EE4FFFE7D807C3FEB25E02544
:10839000E0242FF582E4340AF58312616374112B13
:1083A000F582E4340AF5837401F0E4FFFEFDFC7409
:1083B000112BF582E4340AF583E0F9F81260FEEB44
:1083C00025E025E02417F582E4340AF58312616381
:1083D0000B80ACE47FB87E0BFDFC900A11E0F9F84D
:1083E0001260FE900A58EEF0A3EFF0900A0C7405AC
:1083F000F0A374DCF09009DA7401F0E4FFFE12944B
:1084000049EF600E7F087E00129449EF60047F01FF
:1084100080027F0022900AD1E0FEA3E0FFEE3395B8
:10842000E08F718E70F56FF56EA3E0FEA3E0FFEEB6
:108430003395E08F758E74F573F572AF71AE70ADD4
:108440006FAC6E900A11E0F9F81260FE8F718E70B9
:108450008D6F8C6E9009B5E0FEA3E0FFFBAA06E4E9
:108460009009ADE0FCA3E0FDA3E0FEA3E0C39BFF09
:10847000EE9AFEED9400FDEC9400FCAB71AA70A99D
:108480006FA86ED31260B0402A9009B5E0FEA3E059
:10849000FFFBAA06E49009ADE0FCA3E0FDA3E0FE2B
:1084A000A3E09BF571EE9AF570ED9400F56FEC94F6
:1084B00000F56E9009B5E0FEA3E0FFE4FCFD900935
:1084C000A5E0F8A3E0F9A3E0FAA3E02FFFEA3EFE5F
:1084D000ED39FDEC38FCAB71AA70A96FA86EC31220
:1084E00060B050279009B5E0FEA3E0FFE4FCFD90EA
:1084F00009A5E0F8A3E0F9A3E0FAA3E02FF571EAFB
:108500003EF570ED39F56FEC38F56E9009B5E0FC8D
