:40000000021415008F828E83E0540100000070F82278FFE4F6D8FD02147A900000EFF0E4F53FF540F541F54275430AC200121F87EF60057F00121FB7122067D2AF9044F4FC
:4000400074FDF0E4F53B754900754A00754B37900000E0FF70067EFF7FFF80008F4C7B017A0079017D2C7C011212FA8F3E900000E060021543E5436004E53E70C9E53E6046
:400080000302059FC3E5389407E53794004008900001E064016005753B04807E900004E0FE900003E0FDEEF53FEDF54074062540F5827400353FF583E0FE74052540F58228
:4000C0007400353FF583E0FDEEF53CEDF53DE5402407FFE4353FFED3EF9538EE95374005753B03803574072540F5827400353FF583E064176005753B04801F7B017A0079B1
:4001000001E5402404FDE4353FFC121C66EF653D7003EE653C6003753B08E4F539F53AE53B600302058E900005E0F536753B04900002E012088801553101823202083403A0
:400140007A3503883703D438020839040F3A05783B0000058B20000302058EE540453F600302058EFF120D84EF70047F0180027F00900005EFF0753900753A01E4F53B0260
:40018000058E20000302058EE5406401453F600302058EE536C39401400302058E900357E0FEA3E0F5828E83120842E4FBFA7901F81207188F24E536B5241E900357E0FE6B
:4001C000A3E0F5828E83120842E4FB7A01F9F81207187522008F238014E536D395244007E4F522F5238006752201752300E523900005F0E522A3F0A374FFF0E4A3F0F539B6
:40020000753A04F53B02058E900002E06434703C20000302058EE5406403453F600302058EE536C39440400FE536D3947F50087541007542108006754101754220AE41AF47
:40024000427D007B017A01792D1208FF20000302058EC3E5409403E53F9400500302058EE54024FDFFE53F34FFFE742D2542F974013541A801FC7D017B017A0079081209F7
:40028000E7E54024FDFFE53F34FFFEEF2542F542EE3541F541E536C394404012E536D3947F500B121DA8753F007540108006753F01754020E54265407004E541653F600369
:4002C00002036F900007E0FE900006E0FDEEF541EDF542E536D3943F506FE5367F00FEEF2542FFE5413E900259F0A3EFF0900357E0FEA3E0F5828E83120842E4FB7A01F9AA
:40030000F812071890025BEEF0A3EFF0900357E0FEA3E0F5828E83120842EFE4EF600A90025BE475F0011205DA90025BE0FEA3E0FFC390025AE09F900259E09E500B753BD5
:400340000AE4F541F54202058E7B017A01792D900263E53FF0A3E540F0AD42AC41AF36120F0BEF60047F0A80027F008F3B8003753B03E4F541F54202058E20000302058EC7
:40038000E4F541F54202059F20000302058EE5422540FFE541353FFED3EF942CEE9401502DE4F53BAE3FAF40742D2542F974013541A801FC7D017B017A0079051209E7E58F
:4003C000402542F542E53F3541F54102058E753B0302058EE540453F600302058E78257C00FD7BFF7A25791FFE7F081209E7D200753900753A08AE39AF3A78057C007D0105
:400400007B007A0079251209E7E4F53B02058E20000302058EE5406403453F600302058E900007E0FE900006E0FDEEF52FEDF530E536C394404038E536D3947F5031AE2F29
:40044000AF307C007D101208D28F348E338D328C318F4B8E4A8D498C48E4754F10F54EF54DF54CFF7E80FDFC12192C8F358050AE2FAF307C017D001208D2C004C005C006FC
:40048000C007AF36E4FCFDFEFBFA7901F812068DD003D002D001D0001206728F348E338D328C318F4B8E4A8D498C48E4F54F754E01F54DF54CFFFE7D10FC12192C8F35E588
:4004C00036D3943F5072AF367E007C207D001208D2E42FFFE43EFEED3408FDE43CFCC004A905AA06AB07AE2FAF307C007D201208D2D0001206728F348E338D328C31E4F5BA
:400500002DF52EC3E52E9420E52D9400502AE4E52E2534FFE52D3533FEE43532FDE43531A907AA06AB05121CF3EF2535F535052EE52E7002052D80CBE536702AAE2FAF301E
:40054000FCFD7BFFFAF9F8C31207C57019FD7F05120A3DC3E5359FF535E4FD7F06120A3DC3E5359FF535E535F404900005F0E4F53BF539753A018016E4FF120D84EF700604
:400580009046FA7480F01220718003753B057B017A007901853948853A49AF3B1215ED900000E0700302004330000302004322BB010689828A83E0225002E722BBFE02E399
:4005C0002289828A83E49322BB010689828A83F0225002F722BBFE01F322C5F0F8A3E028F0C5F0F8E582158270021583E038F022BB010A89828A83E0F5F0A3E022500687B6
:40060000F009E71922BBFE07E3F5F009E3192289828A83E493F5F074019322BB010789828A830205DA500B09C5F027F7C5F01937F722BBFE0D09F8E325F0F3C5F019E338A6
:40064000F322F889828A8374019325F0C5F0F8E4933822BB010A89828A83F0E5F0A3F0225006F709A7F01922BBFE06F3E5F009F31922EF2BFFEE3AFEED39FDEC38FC22C315
:40068000EF9BFFEE9AFEED99FDEC98FC22E88FF0A4CC8BF0A42CFCE98EF0A42CFC8AF0EDA42CFCEA8EF0A4CDA8F08BF0A42DCC3825F0FDE98FF0A42CCD35F0FCEB8EF0A47C
:4006C000FEA9F0EB8FF0A4CFC5F02ECD39FEE43CFCEAA42DCE35F0FDE43CFC2275F008758200EF2FFFEE33FECD33CDCC33CCC58233C5829BED9AEC99E58298400CF582EE4A
:400700009BFEED9AFDEC99FC0FD5F0D6E4CEFBE4CDFAE4CCF9A88222B800C1B90059BA002DEC8BF084CFCECDFCE5F0CBF97818EF2FFFEE33FEED33FDEC33FCEB33FB10D7C4
:4007400003994004EB99FB0FD8E5E4F9FA227818EF2FFFEE33FEED33FDEC33FCC933C910D7059BE99A4007EC9BFCE99AF90FD8E0E4C9FAE4CCFB2275F010EF2FFFEE33FE50
:40078000ED33FDCC33CCC833C810D7079BEC9AE899400AED9BFDEC9AFCE899F80FD5F0DAE4CDFBE4CCFAE4C8F922EF4BFFEE4AFEED49FDEC48FC22C3E49FFFE49EFEE49D2F
:4007C000FDE49CFC22EB9FF5F0EA9E42F0E99D42F0E89C45F022E8600FECC313FCED13FDEE13FEEF13FFD8F122E8600FEFC333FFEE33FEED33FDEC33FCD8F122BB010789DC
:40080000828A830208365005E9F8020A0DBBFE05E9F8020A1989828A83020842BB010789828A8302085E5005E9F8020A25BBFE05E9F8020A3122E0FCA3E0FDA3E0FEA3E06A
:40084000FF22E493FC740193FD740293FE740393FF22E0F8A3E0F9A3E0FAA3E0FB22ECF0A3EDF0A3EEF0A3EFF022E0FBA3E0FAA3E0F922EBF0A3EAF0A3E9F022E493FB74E9
:400880000193FA740293F922D083D082F8E4937012740193700DA3A393F8740193F5828883E4737402936860EFA3A3A380DFE5092582F582E5083583F583B50804858209B7
:4008C0002210AF06858209F50822858209F508D2AF22EC8EF0A4CCC5F0CCCDF8EFA4CEC5F02DFDE43CFCE8A42EC8C5F03DFDE43CFCEFA4FFE5F028FEE43DFDE43CFC22EF51
:400900004E6012EF60010EEDBB010B89828A83F0A3DFFCDEFA2289F05007F709DFFCA9F022BBFEFCF309DFFCA9F022E709F608DFFA8046E709F208DFFA803E88828C83E7AA
:4009400009F0A3DFFA8032E309F608DFFA806EE309F208DFFA806688828C83E309F0A3DFFA805A89828A83E0A3F608DFFA804E89828A83E0A3F208DFFA804280D280FA80F3
:40098000C680D4805580F28029801080A680EA809A80A880DA80E280CA802988848C8589828A83E493A30586F0A30586DFF5DEF3800B89828A83E493A3F608DFF9ECFAA95D
:4009C000F0EDFB2288848C8589828A83E0A30586F0A30586DFF6DEF480E389828A83E493A3F208DFF980D688F0EF60010E4E60CD88F0ED2402B4040050C3F582EB2402B455
:400A0000040050B9232345822390097B73E6FC08E6FD08E6FE08E6FF22E2FC08E2FD08E2FE08E2FF22ECF608EDF608EEF608EFF622ECF208EDF208EEF208EFF22290025D03
:400A4000EDF0AB079002627402F0E4FFFEFDFCA312085EEB1208880A79010AA6020ACB030AF0040B15050B40060B8F070B6B080BB3090BD70A00000C0190025DE0FF7E005E
:400A80007C017D001208D21207B7EF24C0FFEE34FFFEED3410FDE43CFCA312085E9002627401F0020C0C90025DE0FF7E007C017D001208D2C374C39FFF74FF9EFE74109DBD
:400AC000FDE49CFCA312085E020C0C90025DE0FF7E007C017D001208D2C374C79FFF74FF9EFE74109DFDE49CFCA312085E020C0C90025DE0FF7E007C017D001208D2C37433
:400B0000CB9FFF74FF9EFE74109DFDE49CFCA312085E020C0C90025DE0FF7E007C017D001208D2C374D09FFF74FF9EFE74109DFDE49CFCA312085E9002627401F0020C0C60
:400B400090025DE0FF7E007C017D001208D2C374D19FFF74FF9EFE74109DFDE49CFCA312085E9002627401F0020C0C90025DE0FF7E007C017D001208D2C374D69FFF74FF16
:400B80009EFE74109DFDE49CFCA312085E807D90025DE0FF7E007C017D001208D2C374D29FFF74FF9EFE74109DFDE49CFCA312085E805990025DE0FF7E007C017D00120811
:400BC000D2C374D49FFF74FF9EFE74109DFDE49CFCA312085E803590025DE0FF7E007C017D001208D2C374D89FFF74FF9EFE74109DFDE49CFCA312085E9002627404F08082
:400C00000BE4FFFEFDFC90025E12085E900262E0B4011990025E120836A907AA06AB05121CF3E4FCFDFE90026312085E900262E06402705C90025E120836EF2401FFE43E91
:400C4000FEE43DFDE43CA907AA06AB05121CF3E4FCFDFE90026312085E900263120852C000C001C002C00390025E120836A907AA06AB05121CF3E4FCFDFE78081207E9D0BA
:400C800003D002D001D0001207AA90026312085E900262E064046003020D7D90025E120836EF2403FFE43EFEE43DFDE43CA907AA06AB05121CF3E4FCFDFE90026312085E37
:400CC000900263120852C000C001C002C00390025E120836EF2402FFE43EFEE43DFDE43CA907AA06AB05121CF3E4FCFDFE78081207E9D003D002D001D0001207AA9002634F
:400D000012085E900263120852C000C001C002C00390025E120836EF2401FFE43EFEE43DFDE43CA907AA06AB05121CF3E4FCFDFE78101207E9D003D002D001D0001207AA84
:400D400090026312085E900263120852C000C001C002C00390025E120836A907AA06AB05121CF3E4FCFDFE78181207E9D003D002D001D0001207AA90026312085E90026356
:400D8000120836228F44AD447F03120A3DEF2401FFE43EFEE43DFDE43CFCE4FB7A01F9F812068DC004C005C006C007AD447F04120A3DD003D002D001D0001206728F4C8EA9
:400DC0004B8D4A8C49C201E4F54DAD447F03120A3DEF2401FFE43EFEE43DFDE43CFCE4FB7A01F9F812068D8F488E478D468C45AF4CAE4BAD4AAC49AB48AA47A946A845C337
:400E00001207C55032854882854783E493F54E6005F46002D201E54E254DF54DAF48AE47AD46AC45E47B01FAF9F81206728F488E478D468C4580B8AD447F03120A3DEF2479
:400E400001FFE43EFEE43DFDE43CFCE4FB7A01F9F812068D78031207D68F488E478D468C45E47FC07EFFFDFCAB4CAA4BA94AA849C31207C57007FF7E20FDFC800DAF4CAE21
:400E80004BAD4AAC4978031207D68F4C8E4B8D4A8C49AF4CAE4BAD4AAC49AB48AA47A946A845C31207C55039E42548FFE43547FEE5463408FDE43545A907AA06AB05121CB9
:400EC000F3EF254DF54DAF48AE47AD46AC45E47B01FAF9F81206728F488E478D468C4580B1E54DF404F54DAD447F01120A3DA804A905AA06AB07AF4DE4FCFDFEC31207C5CC
:400F000070032001037F06227F002290025EECF0A3EDF0A312087390025DEFF0E4900265F0EFD3943F500E90025DE0940140069002657401F090025DE0FFD3947F4006903A
:400F400002657401F0EFC39440400CEFD3944140069002657401F0EFD3943F501E90025EE0FEA3E0FFE4FCFDFB7A01F9F8C31207C5502F9002657401F08027D390025FE03C
:400F8000948090025EE0940040069002657401F0900263E07004A3E0641060069002657401F090026012086AE94A4B700590026504F0900265E0600302108A121EFEEF606E
:400FC0000302108490025EE0FCA3E0FDA312086A900263E0FFA3E090026CCFF0A3EFF090025DE0FF1211DE900265EFF06407600302107F904722E0540270087F01FE121EF6
:401000006480F0904722E054026009E0FF1313543FFF80027FFFEF7006900265F0800690026574FFF0900265E0705490025DE0FFA3E0FCA3E0FD900353E0FBA3E090026AD9
:40104000F0121A90900265EFF064077032904722E0540270087F01FE121E6480F0904722E054026009E0FF1313543FFF80027FFFEF7006900265F0800690026574FFF0124B
:40108000205180069002657404F0900265E0FF227B007A4679E8121CF3EF4401FD7B007A4679E8122045E4F52CE52CC3940A502CE52C75F005A42461F582E43424AF82F571
:4010C000218F22F58312087C8F82852183740393FC740493FD121F6E052C80CDE4F52CE52CC394015046E52C75F007A42413F582E43425AF82F5238F24F58312087C8B25E1
:401100008A2689278F82852383740393FE7404938E28F529740593F52A740693F52BAD29AC28FFAE2A121EB8052C80B37E207F92121DD97B017A507903121CF3EF4402FD3B
:401140007B017A5079031220457B017A507913121CF3EF4402FD7B017A5079131220459043A0E04440F09043C2E04410F07C207D827B007A5179127F087E00121EB87C2053
:401180007D8A7B007A5179227F087E00121EB89044F47401F0904322E04408F09046ECE0C394055006904689743AF090480074F1F012150690480074B1F0121F1D7B007A41
:4011C0004379A0C00179B0900005120873D0017F0E7E00121D749043B0E054FDF022900266EFF0A3ECF0A3EDF0A312087390026E7407F0904722E0540270030212EE904756
:401200002074B6F074D5F07402F0904722E0540260030212E6900266E0904720F0E490026FF0A3F090026CE0FEA3E0FF90026FE0FCA3E0FDC39FEC9E501F90026912086A8D
:40124000E92DF9EA3CFA1205AF904720F090026FE475F0011205DA80CB90026CE064017002A3E060030212F4900266E0FFD3943F40030212F47E007C207D001208D2E42F0A
:40128000FFE43EFEED3408FDE43CFCC004A905AA06AB07A3E0FEA3E0FF7C007D201208D2D00012067290027112085EE490026FF0A3F090026FE0FEA3E0FFC39420EE94005A
:4012C0005032E4FCFDA3120852120672A907AA06AB05121CF3904720EFF090026FE475F0011205DA80CC90026E7409F0800690026E7404F090026EE0FF228B448A4589469E
:401300008C478D48755505E4F54DF54EE54C75F00AA4FFC3E54E9FE54D95F0503B121B34EF6022121B347553008F54E47F19FEFDFC1218C7121B34D3EF9554E4955350E366
:40134000E4F5558013E47F01FEFDFC1218C7054EE54E7002054D80B4AB49AA4AA94BE4F5F0120653E4F54FF550121B34EFD394005003021412121B347551008F52AB49AA8D
:401380004AA94BE5518552F012061BAB49AA4AA94B1205F0C39548E5F09547505FE4F54DF54EC3E54E9552E54D95515025121C1CAB44E5462550F9E545354FFAEF1205C8C1
:4013C0000550E5507002054F054EE54E7002054D80D0AB44E55024FFFFE54F34FFFEE5462FF9E5453EFA1205AF64177003021369E47F05FEFDFC1218C7021369AB49AA4ABB
:40140000A94B1205F0C39552FFE5F095518FF0120653AF552275930078007583467582E8E04401F0009046ECE0F99046FAE0FA90034BF0B903225420B40012B8001AEA9014
:401440001FFFF07401901FFEF09046F6F0901FFEE06005901FFFE0FA90480074C0F0758156121EDE90000078007920E4F0A3D8FCD9FAEA90034BF002001175081F7509FD1F
:401480001210900214C1022079E493A3F8E493A34003F68001F208DFF48029E493A3F85407240CC8C333C4540F4420C8834004F456800146F6DFE4800B0102040810204063
:4014C00080901B83E47E019360BCA3FF543F30E509541FFEE493A360010ECF54C025E060A840B8E493A3FAE493A3F8E493A3C8C582C8CAC583CAF0A3C8C582C8CAC583CABE
:40150000DFE9DEE780BE7B007A4079807D337C001220279040827418F09043007402F09040007408F09042007403F07B0C7A017908121CF39046A1EFF07B007A4279227D68
:40154000087C001220277B007A4279207D517C12122027E4900004F07F19FEFDFC90000012085E900000120836D3EF9400EE9400403B900004E0FF64036032904225E05440
:4015800001FEEF25E04E5403900004F0E47FE07E01FDFC121D0090000012083674FFFBFAF9F812067290000012085E80B6900000120836EF4E70057F0312207F7B007A402A
:4015C00079047D007C011220279040047407F0904006E4F09040087448F0904004E4F09040017402F09043A2E04401F0228B458A46894774011205C8AB452547F9E43546AB
:40160000FAEF1205C8E549AB45E5472402F9E43546FAE5491205C8E548FFAB45E5472403F9E43546FAEF1205C8AB45AA46A947E5492404FDE43548FC121C668E4A8F4BEFCF
:40164000AB45E5492404FDE43548FCE5472DF9E5463CFAEF1205C8E54AFFAB45E5492405FDE43548FCE5472DF9E5463CFAEF1205C8AB45E5492406FFE43548FEE5472FF9FF
:40168000E5463EFA74171205C8E5492407FDE43548FC755100755200755348755496AB45AA46A947121BD122C0E0C083C082C085C084C086758600C093759300C0D075D09F
:4016C00000C001C002C003C006C007E4FBA2AF33FAD2AF9044F474FDF090646CE0FFFE541EF960069002FDE049F0EF30E54590644AE0FE9002F9E02478F582E43402F583E5
:40170000EEF07B01EB602C900276E060069002FC7401F09002F9E004F0E0C394404002E4F0900277E0FE9002F9E0B506069002767401F0EF20E5A2AF02EA24FF92AFD007BF
:40174000D006D003D002D001D0D0D093D086D084D085D082D083D0E032752106E4FF120D84EF7002F521E4F54BF54AF549F548900357E0FEA3E0F5828E831208428F4F8E82
:401780004E8D4D8C4CE4FFFE7D10FC12192C900355E0FCA3E0F5828C83E493FEC3EF9EFFF404FFB50612900357E0FEA3E0F5828E83120842EF4E70057F00121FB79046FAFB
:4017C000E054C064406004E52160099046FAE4F0FF12001A12205D22C0E0C083C082C085C084C086758600C093759300C0D075D000C006C007A2AFE433FFD2AF9044F4742E
:40180000FDF09002FAE0FE9002B8E06E602C90646EE020E2259002B8E0C394404002E4F09002B8E024B9F582E43402F583E090644DF09002B8E004F080C8EF24FF92AFD043
:4018400007D006D0D0D093D086D084D085D082D083D0E032A9079002FAE0FF9002B8E0FEEFC39E501AEE24FFFDE434FFFCEF7A00B50508EAB504047D0180027D00800CC346
:40188000EF9EB43F047D0180027D00ED70C8EEB5070D90646EE020E20690644DE9F022EFC394404002E4FF74B92FF582E43402F583E9F00F9002FAEFF090646EE030E10609
:4018C0009044D07402F02290FFFC1208AE12085E850883850982120836D3EF9400EE9480402E90034C120836121D00850883850982C083C082120836E42FFFEE3480FEEDC9
:4019000034FFFDEC34FFFCD082D08312085E80C090034212083685088385098212085212068D121D009000041208AE228F478E468D458C44E4F550D3E54F9400E54E940025
:40194000404BAF4FAE4EAD4DAC4C74FFFBFAF9F81206728F4F8E4E8D4D8C4CE547254BFFE546354AFEE5453549FDE5443548FCEF254FFFEE354EFEED354DFDEC354CA907BD
:40198000AA06AB051205AF2550F55080AAAF5022121FE190025E74FFF0121EFEEF703B7F01121E35EF6407702C7B017A0379537D021219E6EFB40215E490025EF090472228
:4019C000E0540270107F01FE121E6480F0904722E0540260D4122051800690025E7404F090025EE0FF2290025F120873900262EDF0E4A3F0900262E0FFA3E0C39F50379065
:401A00004722E054016003D38001C340097F017E00121E6480E9904720E0FF90025F12086A900263E029F9E43AFAEF1205C8900263E004F080BE900263E0FF2290025EEC49
:401A4000F0A3EDF090025DEFF0541F25E0FFE433FEE42FFFEE3444FAA9077B0112201A900260EEF0A3EFF090025DE075F002A42400FFE5F03444FAA9077B01A3E0FEA3E0EC
:401A8000FFFDAC06122029900260E0FEA3E0FF22900267ECF0A3EDF0AC077D07904722E05402603B90472074B6F074D8F07405F0904722E054027023904720ECF09002670F
:401AC000E0904720F0900267E0A3E0904720F0EBF090026AE0904720F080067D0980027D04AF0522121FE1121EFEEF703B121F3A90025EEFF06407702A904722E0540270A1
:401B0000087F01FE121E6480F0904722E054026009E0FF1313543FFF80027FFFEF700490025EF0122051800690025E7404F090025EE0FF229044C87401F09002F9E0FE905D
:401B40000277E0B5060E900276E060047F40802CE4FF80289002F9E0FE900277E0C39E500BE0FE9002F9E0C39EFF8010900277E0FEC374409EFE9002F9E02EFF9044C07420
:401B800001F022420355251A420357251B430350000000440347016E360044034200005DC04103461844034C2EE000004102FB004102B8004102FA004102FD00410277003B
:401BC0004102F900410276004102FC0041035B00008B4C8A4D894E8C4F8D50E4F555F556121E07C3E5569550E555954F501DAB4CE54E2556F9E54D3555FA1205AFFF121874
:401C0000540556E5567002055580D8AB51AA52A953E54F8550F01206537F00229044C87401F0900277E0FE9002F9E0FD900276E07004EE6D602474782EF582E43402F583EF
:401C4000E0FF0EEEC394404002E4FE900277EEF0900276E06009E4F0800590644AE0FF9044C07401F0228B4C8A4D894EE4F54FF550D3ED9400EC94004025AB4CED24FFFFD4
:401C8000EC34FFFEE54E2FF9E54D3EFA1205AF2550F550E4354FF54FED1D70011C80D2E550F4FFE54FF4FEEF2401FFE43EFE227C167DA8E4FF121A3C7D07E4FF121F55E4B7
:401CC0009002FDF090648A7469F090648C7420F07C177DD87F01121A3C7D077F01121F5590642E7406F090643E7447F090648E7402F0228B938A838982E0759300FF22000A
:401D0000EC4D4E700D78FCEF24E950032840FD2200007BF178DA0000EF28FF78FFEE38FEED38FDEC38FC50E7EF2BFFEE38FEED38FDEC38FC40F22205020304121FCC9002FD
:401D40005DEFF090649AE04420F090649CE04410F09044C07401F090649EE04410F09044D87402F09044C0F012203690025DE0FF121F9F22758600EF4E6027EF60010E75B2
:401D80009300900005E0F595A3E0F585A3E0F5848B938A838982E0A30586F0A31586DFF6DEF4E4F593F59522121FCC9043A0E04408F09043B0E04408F090470174C8F090A8
:401DC00043ACE04410F09043BCE04410F0904700E0542060F8121F9F22ACEAADA08E838F82E493F9601CA3E493F5EAA3E493F5A0A3E49360F1FAA3E493F8A3E493F2DAF6BC
:401E0000D9E48DA08CEA22121FCC90649AE04401F0E054FEF0121F9F9044C87401F0E4900277F09002F9F0900276F09002FCF09044C004F0227E07904722E05402601F9052
:401E4000472074B6F074E1F0740EF0904722E054027007904720EFF080067E0980027E04AF062200EEFA900346E0F88FF0A4FFAEF0E88AF0A42EFEE5F03400FDEF24C9FF5A
:401E800078FFEE38FEED38FDE438FC5003021D0022121FCC90649DE04401F0E054FEF0121F9F9044C87402F0E49002B8F09002FAF09044C07402F022758600EF4E601BEFCA
:401EC00060010E8C838D828B958A858984E493A30586F0A31586DFF5DEF3E4F595229046FAE054C064807015F0FD7F02120A3DEF4E600AE4FD7F02120A3D122009229002CC
:401F0000667404F0121FCC90035BE0700704F0E4900266F0121F9F900266E0FF227B0C7A0179CF121CF3EF540790586EF0EFC4540FA3F09058767444F0227F07904722E0DD
:401F40005402600E90472074B6F074E0F0740DF080027F0422AC07ED540775F020A4FFEC541F2480F582E43444F583EFF022EC4D6011ED60010C8B938A838982E4F0A3DDB0
:401F8000FCDCFA75930022121AE490025DEFF0700812199090025DEFF090025DE0FF22EF54016004D2AF8002C2AFEF5402FF9044F4E054FD4FF02290FFFF1208AEEFF090D7
:401FC00046EA7401F09000011208AE229044F4E0F84402F0E85402FF10AF012274014FFF22121FCC9043A0E04408F09043B0E04408F0121F9F229002FBE07009121CAF9087
:4020000002FB7401F0121D3B2290034BE0FA8E838F827400758101738B938A838982E0FFA3E0FE759300228B938A838982EDF0A3ECF0759300229043A2E04401F09043B26F
:40204000E04401F0228B938A838982EDF075930022121FCCE490035BF0121F9F229046FA7480F012207122121FF6121E07121E91229046F6E04401F02212175980FE2280DC
:40208000FE22007F7B007B00000030D8C800D800000016005205082309121098118814200064047E3F8A698C3A8E0F010101E204010301E6020105028702E008010604B82E
:4020C00002BE01D804DF010107021B02A702010A088501890195019901B101BF01D904DF01010B4F00400106038808010A040B111028130219641A041B0A202021082230E9
:40210000274028282A022B022E033080310232103304340836203708382239803A083C283E084028410843824A024B0152045B4068286A016B027090712072108D408E104D
:402140008F809042910493109621980199029B0C9D649E049F80A004A102A202A490A520A702AB01B021B405B602B744C00FC20FC40ECA0FCC6FCE6FD00FD208D608E0083A
:40218000E801010C4C0001021608E70A180E3F101E120114C6163918481C88208824DD262228232ADC2CC8301F320834E03A22541A560458045B045F018008824284F88698
:4021C000018704880F89028AF08D068EC792849308943996C698109C20A020A101A43FA6C0A906AA08AC30B031B106B308B501B6FFB702B982BE40BF11C062C101C5E0C6DA
:40220000CBC80EC9FFCAFFCBFFCEF0CF44D00CD804D904DA04DF01E6C0EA40EB02010D46002901100210030B04010709080209260A310D220E11108012481388151016502C
:402240001780180219021C081D021E201F20200421012208230128402920320238C839A43A083B10414042084921502053405E205F026540674887409088912093089502C2
:40228000978098409B4A9C029D259E049F04A420A504A72AB001B301C0DFC2FFC4FFCA05CC01CE0ED00CD204D6A0D8B0010E4E040906D007230B080C0C0D210E710F0E1048
:4022C00014141016AC170C18DC1A221B201E0321102410264029212A202B062D0C2F2330E03310350F361F37203A023B203F444004464049FF4A074BFF4C404D204EF04F8A
:4023000005500854015604580459045A045B045F01604061A862406320871F89198B0691019304950997029A01A506A719A919AA01AB06AF0FB201B310B507B708B908BB65
:4023400020BE04D804D904DB04DF01010F3C004404040504084809200A010B800E0810081210160418C01A011F042130224425102604270A280829212A802F2A303031047A
:402380003402370438883A103D284101500C5210581059015A886380680169046A206B406F0171407304821083408550868089048B04C005C24FC446CA7DCCC6CE6ED00101
:4023C000D60FD801E40C014005322035808180CC30E2200141038620A620E6400144058301870188C0E004E40401450F0C0857025B046401660193029889A040A301B009C2
:40240000C204D607D801E801EC0401460D8702900893029888A040A301A702AB04B40CB601E808EC02EE08014705900893029888A040A301014C0E5004544057015808607D
:40244000806702900893029888A040A301D406D607D80201500300010C010E01015101000F005100001000513000400051C000100051F000100100000A00010A800580018E
:40248000140008000140000A00014C000200015000002000008080207D050000040800130C0400030204200A031410130C0C7300088000400800004043003C404F003000DE
:4024C0000000734000303F0FC0800008002028000040003402010005C0000E12FFFFFF62A0F0410C00000000000210040404040000000100000000000040020010301000CE
:4025000010101200000000000000000000000000000000010A002493008061000026006930091E031E010100000000000000000000000000000000000000000000000000BD
:40254000000000000000000000000000000000000000000000000000000000000000000000000000000000000000000000000000000000000000000000000000000000005B
:40258000000000000000000000000000000000000000000000000000000000000000000000000000000000000000000000000000000000000000000000000000000000001B
:4025C00000000000000000000000000000000000000000000000000000000000000000000000000000000000000000000000000000000000000000000000000000000000DB
:40260000028E45008F828E83E0540100000070F82278FFE4F6D8FD028ED390044FEBF0A3EAF0A3E9F090044FE0FBA3E0FAA3E0F8AC02AD037BFF7A6479921263A0900489FB
:4026400074FFF0A37464F0A37493F090044FE0FBA3E0FAA3E0F9129F0A90048974FFF0A37464F0A37496F090044FE0FBA3E0FAA3E0F9129F0A90048974FFF0A37464F0A3F8
:4026800074A9F090044FE0FBA3E0FAA3E0F9129F0A90048974FFF0A37464F0A374C4F090044FE0FBA3E0FAA3E0F9129F0A90048974FFF0A37464F0A374CAF090044FE0FBF9
:4026C000A3E0FAA3E0F9129F0A90048974FFF0A37464F0A374D8F0900938E0FF90048CE4F0A3EFF07B017A047954126F709004897401F0A37404F0A37454F090044FE0FBD8
:40270000A3E0FAA3E0F9129F0A90048974FFF0A37464F0A374E1F0A3E4F0A37406F07B017A047954126F709004897401F0A37404F0A37454F090044FE0FBA3E0FAA3E0F937
:40274000129F0A90048974FFF0A37464F0A374F9F0900BECE0FF90048CE4F0A3EFF07B017A047954126F709004897401F0A37404F0A37454F090044FE0FBA3E0FAA3E0F980
:40278000129F0A90048974FFF0A37464F0A37493F090044FE0FBA3E0FAA3E0F9129F0A90048974FFF0A37465F0A37409F090044FE0FBA3E0FAA3E0F9129F0A90048974FF69
:4027C000F0A37465F0A37416F090044FE0FBA3E0FAA3E0F9129F0A900A10E014604C14602B14600A14606114605E2405707690048974FFF0A37465F0A37427F090044FE0F4
:40280000FBA3E0FAA3E0F9129F0A805890048974FFF0A37465F0A37435F090044FE0FBA3E0FAA3E0F9129F0A803A90048974FFF0A37465F0A37443F090044FE0FBA3E0FA4C
:40284000A3E0F9129F0A801C90048974FFF0A37465F0A3744CF090044FE0FBA3E0FAA3E0F9129F0AE4900452F0A3F0C3900453E09402900452E0648094804003022A7A9030
:402880000A10E06402705F90048974FFF0A37465F0A3745BF0900452E0FEA3E07802C333CE33CED8F924BFF582740A3EF583E0A3E0A3E0FFA3E090048CCFF0A3EFF07B0171
:4028C0007A047954126F709004897401F0A37404F0A37454F090044FE0FBA3E0FAA3E0F9129F0A022A69900A10E06401705F90048974FFF0A37465F0A3745BF0900452E0DB
:40290000FEA3E07802C333CE33CED8F924C7F582740A3EF583E0A3E0A3E0FFA3E090048CCFF0A3EFF07B017A047954126F709004897401F0A37404F0A37454F090044FE044
:40294000FBA3E0FAA3E0F9129F0A022A69900A10E0FF64056008EF640460030229F290048974FFF0A37465F0A3745BF0900452E0FEA3E07802C333CE33CED8F924B7F582EB
:40298000740A3EF583E0A3E0A3E0FEA3E0FBAA06900B82E0A3E0A3E0FEA3E0FFEB2FFFEA3EFE900452E0FCA3E0246EF58274093CF583E0FDEFA805088006CEA2E713CE133E
:4029C000D8F8FF90048CEEF0A3EFF07B017A047954126F709004897401F0A37404F0A37454F090044FE0FBA3E0FAA3E0F9129F0A807790048974FFF0A37465F0A3745BF031
:402A0000900452E0FAA3E0FBAE027802C333CE33CED8F924B7F582740A3EF583E0FCA3E0FDA3E0FEA3E0FF746E2BF58274093AF583E0F9F81260EAC3E49FFFE49E90048CEC
:402A4000F0A3EFF07B017A047954126F709004897401F0A37404F0A37454F090044FE0FBA3E0FAA3E0F9129F0A900453E004F07006900452E004F002286B90048974FFF0D2
:402A8000A37464F0A37493F090044FE0FBA3E0FAA3E0F9129F0A90048974FFF0A37465F0A3745FF07B017A047954126F709009D9E05403601990048974FFF0A37465F0A3E4
:402AC000746FF07B017A047954129F0A801790048974FFF0A37465F0A37475F07B017A047954129F0A9004897401F0A37404F0A37454F090044FE0FBA3E0FAA3E0F9129FB0
:402B00000A90048974FFF0A37465F0A3747AF090044FE0FBA3E0FAA3E0F9129F0A90048974FFF0A37465F0A37490F090044FE0FBA3E0FAA3E0F9129F0AE4900452F0A3F06A
:402B4000C3900453E09406900452E0648094804003022C0990048974FFF0A37465F0A374A0F0900452E0FCA3E0FD2401FEE43C90048CF0A3CEF0EDAE047802C333CE33CE92
:402B8000D8F9247AF582740B3EF583E0FCA3E0FDA3E0FEA3E0FF900452E0FAA3E0246EF58274093AF583E0F9F81260EA1260A290048EEEF0A3EFF07B017A047954126F70A5
:402BC0009004897401F0A37404F0A37454F090044FE0FBA3E0FAA3E0F9129F0A90048974FFF0A37464F0A37493F090044FE0FBA3E0FAA3E0F9129F0A900453E004F0700653
:402C0000900452E004F0022B4090048974FFF0A37465F0A374A9F0900AB3E0FCA3E0FDA3E0FEA3E0FF90048C1261637B017A047954126F709004897401F0A37404F0A374D3
:402C400054F090044FE0FBA3E0FAA3E0F9129F0A90048974FFF0A37464F0A37493F090044FE0FBA3E0FAA3E0F9129F0A90048974FFF0A37465F0A374BBF0900B92E0FCA34D
:402C8000E0FDA3E0FEA3E0FF90048C1261637B017A047954126F709004897401F0A37404F0A37454F090044FE0FBA3E0FAA3E0F9129F0A90048974FFF0A37464F0A3749397
:402CC000F090044FE0FBA3E0FAA3E0F9129F0A90048974FFF0A37465F0A374CFF0900B96E0FCA3E0FDA3E0FEA3E0FF90048C1261637B017A047954126F709004897401F0F0
:402D0000A37404F0A37454F090044FE0FBA3E0FAA3E0F9129F0A90048974FFF0A37464F0A37493F090044FE0FBA3E0FAA3E0F9129F0A90048974FFF0A37465F0A374E3F0EE
:402D400090044FE0FBA3E0FAA3E0F9129F0A90048974FFF0A37465F0A374F9F090044FE0FBA3E0FAA3E0F9129F0A90096DE0FF64037003022E80EF64057003022E80900405
:402D80008974FFF0A37466F0A3740BF0900939E0FCA3E0FDA3E0FEA3E0FFEC125B98E4FBFA79807847125A8290048C1261637B017A047954126F709004897401F0A37404BC
:402DC000F0A37454F090044FE0FBA3E0FAA3E0F9129F0A90048974FFF0A37466F0A37415F090093DE0FCA3E0FDA3E0FEA3E0FFEC125B98E4FBFA79807847125A8290048C48
:402E00001261637B017A047954126F709004897401F0A37404F0A37454F090044FE0FBA3E0FAA3E0F9129F0A90048974FFF0A37466F0A3741FF0900941E0FCA3E0FDA3E0DE
:402E4000FEA3E0FFEC125B98E4FBFA79807847125A8290048C1261637B017A047954126F709004897401F0A37404F0A37454F090044FE0FBA3E0FAA3E0F9129F0A022F7FAA
:402E800090048974FFF0A37466F0A3740BF0900951E0FCA3E0FDA3E0FEA3E0FFEC125B98E4FBFA79807847125A8290048C1261637B017A047954126F709004897401F0A387
:402EC0007404F0A37454F090044FE0FBA3E0FAA3E0F9129F0A90048974FFF0A37466F0A37415F0900955E0FCA3E0FDA3E0FEA3E0FFEC125B98E4FBFA79807847125A829047
:402F0000048C1261637B017A047954126F709004897401F0A37404F0A37454F090044FE0FBA3E0FAA3E0F9129F0A90048974FFF0A37466F0A3741FF0900959E0FCA3E0FDB8
:402F4000A3E0FEA3E0FFEC125B98E4FBFA79807847125A8290048C1261637B017A047954126F709004897401F0A37404F0A37454F090044FE0FBA3E0FAA3E0F9129F0A9046
:402F8000048974FFF0A37466F0A37429F090044FE0FBA3E0FAA3E0F9129F0A90096DE0FF640370030230B1EF640570030230B190048974FFF0A37466F0A3740BF0900945E5
:402FC000E0FCA3E0FDA3E0FEA3E0FFEC125B98E4FBFA79807847125A8290048C1261637B017A047954126F709004897401F0A37404F0A37454F090044FE0FBA3E0FAA3E0AE
:40300000F9129F0A90048974FFF0A37466F0A37415F0900949E0FCA3E0FDA3E0FEA3E0FFEC125B98E4FBFA79807847125A8290048C1261637B017A047954126F7090048957
:403040007401F0A37404F0A37454F090044FE0FBA3E0FAA3E0F9129F0A90048974FFF0A37466F0A3741FF090094DE0FCA3E0FDA3E0FEA3E0FFEC125B98E4FBFA7980784739
:40308000125A8290048C1261637B017A047954126F709004897401F0A37404F0A37454F090044FE0FBA3E0FAA3E0F9129F0A0231B090048974FFF0A37466F0A3740BF090A8
:4030C000095DE0FCA3E0FDA3E0FEA3E0FFEC125B98E4FBFA79807847125A8290048C1261637B017A047954126F709004897401F0A37404F0A37454F090044FE0FBA3E0FACA
:40310000A3E0F9129F0A90048974FFF0A37466F0A37415F0900961E0FCA3E0FDA3E0FEA3E0FFEC125B98E4FBFA79807847125A8290048C1261637B017A047954126F709048
:4031400004897401F0A37404F0A37454F090044FE0FBA3E0FAA3E0F9129F0A90048974FFF0A37466F0A3741FF0900965E0FCA3E0FDA3E0FEA3E0FFEC125B98E4FBFA798052
:403180007847125A8290048C1261637B017A047954126F709004897401F0A37404F0A37454F090044FE0FBA3E0FAA3E0F9129F0A90048974FFF0A37464F0A37493F0900441
:4031C0004FE0FBA3E0FAA3E0F9129F0A90096BE0B4031E90048974FFF0A37466F0A37443F090044FE0FBA3E0FAA3E0F9129F0A801C90048974FFF0A37466F0A3745DF09012
:40320000044FE0FBA3E0FAA3E0F9129F0A90096CE014602104703A90048974FFF0A37466F0A37476F090044FE0FBA3E0FAA3E0F9129F0A801C90048974FFF0A37466F0A37C
:403240007488F090044FE0FBA3E0FAA3E0F9129F0A90048974FFF0A37466F0A3749FF090044FE0FBA3E0FAA3E0F9129F0A90096DE014603814605314606E147003023306EE
:403280001470030233242405600302334090048974FFF0A37466F0A374AEF090044FE0FBA3E0FAA3E0F9129F0A02334090048974FFF0A37466F0A374B9F090044FE0FBA396
:4032C000E0FAA3E0F9129F0A807690048974FFF0A37466F0A374BFF090044FE0FBA3E0FAA3E0F9129F0A805890048974FFF0A37466F0A374C9F090044FE0FBA3E0FAA3E04F
:40330000F9129F0A803A90048974FFF0A37466F0A374E0F090044FE0FBA3E0FAA3E0F9129F0A801C90048974FFF0A37466F0A374EDF090044FE0FBA3E0FAA3E0F9129F0AEA
:4033400090048974FFF0A37467F0A37406F090044FE0FBA3E0FAA3E0F9129F0AE4900452F0A3F0C3900453E09406900452E06480948040030233FF90048974FFF0A374653E
:40338000F0A374A0F0900452E0FCA3E0FD2401FEE43C90048CF0A3CEF0746E2DF58274093CF583E0FF90048EE4F0A3EFF07B017A047954126F709004897401F0A37404F02D
:4033C000A37454F090044FE0FBA3E0FAA3E0F9129F0A90048974FFF0A37464F0A37493F090044FE0FBA3E0FAA3E0F9129F0A900453E004F07006900452E004F002336390F6
:40340000048974FFF0A37467F0A3741BF090044FE0FBA3E0FAA3E0F9129F0AE4900452F0A3F0900452E0FEA3E0FFC39406EE648094804003023559EF64024E706C90048955
:4034400074FFF0A37467F0A37431F0900452E0FCA3E0FD2401FEE43C90048CF0A3CEF0EDAE047802C333CE33CED8F92474F58274093EF583E0FCA3E0FDA3E0FEA3E0FF12EB
:4034800060A2900452E0FAA3E0246EF58274093AF583E0F9F81260EA90048E1261637B017A047954126F70806790048974FFF0A37467F0A37431F0900452E0FCA3E0FD243F
:4034C00001FEE43C90048CF0A3CEF0EDAE047802C333CE33CED8F92474F58274093EF583E0FCA3E0FDA3E0FEA3E0FF900452E0FAA3E0246EF58274093AF583E0F9F812602E
:40350000EA90048E1261637B017A047954126F709004897401F0A37404F0A37454F090044FE0FBA3E0FAA3E0F9129F0A90048974FFF0A37464F0A37493F090044FE0FBA3B1
:40354000E0FAA3E0F9129F0A900453E004F07006900452E004F002342290048974FFF0A37467F0A3743BF090044FE0FBA3E0FAA3E0F9129F0AE4900452F0A3F0C39004535E
:40358000E09406900452E064809480400302362A90048974FFF0A37467F0A37455F0900452E0FCA3E0FD2401FEE43C90048CF0A3CEF0EDAE047802C333CE33CED8F9248C8F
:4035C000F58274093EF583E0FCA3E0FDA3E0FEA3E0FF90048E1261637B017A047954126F709004897401F0A37404F0A37454F090044FE0FBA3E0FAA3E0F9129F0A9004899B
:4036000074FFF0A37464F0A37493F090044FE0FBA3E0FAA3E0F9129F0A900453E004F07006900452E004F002357C90048974FFF0A37467F0A3745EF0900A47E0FF90048CDF
:40364000E4F0A3EFF07B017A047954126F709004897401F0A37404F0A37454F090044FE0FBA3E0FAA3E0F9129F0A90048974FFF0A37464F0A37493F090044FE0FBA3E0FA22
:40368000A3E0F9129F0AE4900452F0A3F0C3900453E09402900452E06480948040030237A590048974FFF0A37467F0A37478F0900452E0FCA3E0FD2401FEE43C90048CF085
:4036C000A3CEF0EDAE047802C333CE33CED8F92448F582740A3EF583E0FCA3E0FDA3E0FEA3E0FF900452E0FAA3E02411F582740A3AF583E0F9F81260EA90048E1261637B85
:40370000017A047954126F709004897401F0A37404F0A37454F090044FE0FBA3E0FAA3E0F9129F0A90048974FFF0A37467F0A3749EF0900452E0FAA3E0FBAE027802C33301
:40374000CE33CED8F92450F582740A3EF583E0FCA3E0FDA3E0FEA3E0FF74112BF582740A3AF583E0F9F81260EA90048C1261637B017A047954126F709004897401F0A37460
:4037800004F0A37454F090044FE0FBA3E0FAA3E0F9129F0A900453E004F07006900452E004F002368D90048974FFF0A37467F0A374ABF0900A58E0FEA3E0FF900A11E0FD1E
:4037C000EFA805088006CEA2E713CE13D8F8FF90048CEEF0A3EFF07B017A047954126F709004897401F0A37404F0A37454F090044FE0FBA3E0FAA3E0F9129F0A9004897462
:40380000FFF0A37464F0A37493F090044FE0FBA3E0FAA3E0F9129F0A90048974FFF0A37467F0A374BDF0900A0CE0FFA3E090048CCFF0A3EFF07B017A047954126F709004BB
:40384000897401F0A37404F0A37454F090044FE0FBA3E0FAA3E0F9129F0A90048974FFF0A37464F0A37493F090044FE0FBA3E0FAA3E0F9129F0A90048974FFF0A37467F09D
:40388000A374CFF0900AAFE0F8A3E0F9A3E0FAA3E0FB900B6EE0FCA3E0FDA3E0FEA3E0C39BFFEE9AFEED99FDEC98FC90048C1261637B017A047954126F709004897401F01B
:4038C000A37404F0A37454F090044FE0FBA3E0FAA3E0F9129F0A90048974FFF0A37464F0A37493F090044FE0FBA3E0FAA3E0F9129F0A22900003EEF0A3EFF0A37404F0A336
:40390000747FF0780C7C007D017BFF7A6779DA7E007F0F1262C2781B7C007D017BFF7A6779E97E007F1C1262C278377C007D017BFF7A6879057E007F1B1262C278527C0086
:403940007D017BFF7A6879207E007F1C1262C2786E7C007D017BFF7A68793C7E007F1B1262C278897C007D017BFF7A6879577E007F271262C278B07C007D017BFF7A6879CE
:403980007E7E007F111262C278C17C007D017BFF7A68798F7E007F191262C278DA7C007D017BFF7A6879A87E007F111262C278EB7C007D017BFF7A6879B97E007F1C1262DD
:4039C000C278077C017D017BFF7A6879D57E007F1D1262C278247C017D017BFF7A6879F27E007F1B1262C2783F7C017D017BFF7A69790D7E007F141262C278537C017D0143
:403A00007BFF7A6979217E007F341262C278877C017D017BFF7A6979557E007F631262C278EA7C017D017BFF7A6979B87E007F2A1262C27B017A00790C12ABD18F707B01A1
:403A40007A00791B12ABD18F717B017A00793712ABD18F727B017A0079B012ABD18F737B017A0079C112ABD18F747B017A0079DA12ABD18F757B017A01790712ABD18F7620
:403A80007B017A01793F12ABD18F777B017A01795312ABD18F787B017A01798712ABD18F797B017A01795312ABD18F7A9004B6740CF0A304F0900003E0FEA3E0FFEE6003EF
:403AC0000249E2EFB40E0040030249E2903AD3F8282873023AFD0245090245120245E70246BC0246C50246CE0246D70247100247BB02482202482B0249500249D39004B887
:403B00007402F0A314F0900938E09004BAF0756E0085706FE56F456E602CC3E570956FFFE4956EFE740C2FF58274003EF583E0FD74BB2FF58274043EF583EDF0E56F156FCA
:403B40007002156E80CE9004EA7407F0A37403F090096DE06403606DE064056068900939E0FCA3E0FDA3E0FEA3E0FFEC125B98E4FBFA79807847125A829004EC126163905D
:403B8000093DE0FCA3E0FDA3E0FEA3E0FFEC125B98E4FBFA79807847125A829004F0126163900941E0FCA3E0FDA3E0FEA3E0FFEC125B98E4FBFA79807847125A829004F465
:403BC0001261638066900951E0FCA3E0FDA3E0FEA3E0FFEC125B98E4FBFA79807847125A829004EC126163900955E0FCA3E0FDA3E0FEA3E0FFEC125B98E4FBFA798078472B
:403C0000125A829004F0126163900959E0FCA3E0FDA3E0FEA3E0FFEC125B98E4FBFA79807847125A829004F4126163756E0085716FE56F456E602CC3E571956FFFE4956E3F
:403C4000FE741B2FF58274003EF583E0FD74F82FF58274043EF583EDF0E56F156F7002156E80CE90051C7407F0A37403F090096DE06403606DE064056068900945E0FCA324
:403C8000E0FDA3E0FEA3E0FFEC125B98E4FBFA79807847125A8290051E126163900949E0FCA3E0FDA3E0FEA3E0FFEC125B98E4FBFA79807847125A82900522126163900954
:403CC0004DE0FCA3E0FDA3E0FEA3E0FFEC125B98E4FBFA79807847125A82900526126163806690095DE0FCA3E0FDA3E0FEA3E0FFEC125B98E4FBFA79807847125A829005D7
:403D00001E126163900961E0FCA3E0FDA3E0FEA3E0FFEC125B98E4FBFA79807847125A82900522126163900965E0FCA3E0FDA3E0FEA3E0FFEC125B98E4FBFA798078471248
:403D40005A82900526126163756E0085726FE56F456E602CC3E572956FFFE4956EFE74372FF58274003EF583E0FD742A2FF58274053EF583EDF0E56F156F7002156E80CE35
:403D8000E490054EF0A304F090096BE0900550F090096B601F90048974FFF0A37464F0A3741DF07B017A007952129F0A900007741CF0801D90048974FFF0A37464F0A37438
:403DC00023F07B017A007952129F0A900007741BF0900007E0756E00F56FE56F456E602E900007E0C3956FFFE4956EFE74522FF58274003EF583E0FD74512FF58274053E14
:403E0000F583EDF0E56F156F7002156E80CC900007E02451F582E43405F5837403F0E4900580F0A304F090096CE0900582F090096C14602204703C90048974FFF0A3746403
:403E4000F0A37428F07B017A00796E129F0A9000077414F0801D90048974FFF0A37464F0A3742EF07B017A00796E129F0A900007741AF0900007E0756E00F56FE56F456E4D
:403E8000602E900007E0C3956FFFE4956EFE746E2FF58274003EF583E0FD74832FF58274053EF583EDF0E56F156F7002156E80CC900007E02483F582E43405F5837401F072
:403EC000E49005B2F0A304F090096DE09005B4F090096D146039146055146071147003023F6C147003023F8B24056003023FA890048974FFF0A37464F0A3743AF07B017A72
:403F0000007989129F0A900007741BF0023FA890048974FFF0A37464F0A37445F07B017A007989129F0A9000077416F0807A90048974FFF0A37464F0A3744BF07B017A009D
:403F40007989129F0A900007741AF0805B90048974FFF0A37464F0A37455F07B017A007989129F0A9000077427F0803C90048974FFF0A37464F0A3746CF07B017A00798966
:403F8000129F0A900007741DF0801D90048974FFF0A37464F0A37479F07B017A007989129F0A9000077429F0900007E0756E00F56FE56F456E602E900007E0C3956FFFE4DB
:403FC000956EFE74892FF58274003EF583E0FD74B52FF58274053EF583EDF0E56F156F7002156E80CC900007E024B5F582E43405F5837402F09005E4F0A37406F0E4F56EA3
:40400000F56FC3E56F9406E56E94005026746E256FF5827409356EF583E0FF74E6256FF5827405356EF583EFF0056FE56F7002056E80CF756E0085736FE56F456E602CC336
:40404000E573956FFFE4956EFE74B02FF58274003EF583E0FD74EC2FF58274053EF583EDF0E56F156F7002156E80CE9006167403F0A37406F0E4F56EF56FC3E56F9406E5A1
:404080006E94005059E56FAE6E7802C333CE33CED8F92474F58274093EF583E0FCA3E0FDA3E0FEA3E0FF746E256FF5827409356EF583E0F9F81260EAAD07AC06E56F25E0C3
:4040C000FFE56E33FE74182FF58274063EF583ECF0A3EDF0056FE56F7002056E809C756E0085746FE56F456E602CC3E574956FFFE4956EFE74C12FF58274003EF583E0FDF2
:4041000074242FF58274063EF583EDF0E56F156F7002156E80CE9006487407F0A314F0E4F56EF56FC3E56F9406E56E94005054E56FAE6E7802C333CE33CED8F9248CF5829B
:4041400074093EF583E0FCA3E0FDA3E0FEA3E0FFC004C005C006C007E56FAE6E7802C333CE33CED8F9244AF58274063EF583D007D006D005D004126163056FE56F70020597
:404180006E80A1756E0085756FE56F456E602CC3E575956FFFE4956EFE74DA2FF58274003EF583E0FD74622FF58274063EF583EDF0E56F156F7002156E80CEE490067AF009
:4041C000A304F09009A4E090067CF09009A4601F90048974FFF0A37464F0A3741DF07B017A0079EB129F0A900007741CF0801D90048974FFF0A37464F0A37423F07B017A6A
:404200000079EB129F0A900007741BF0900007E0756E00F56FE56F456E602E900007E0C3956FFFE4956EFE74EB2FF58274003EF583E0FD747D2FF58274063EF583EDF0E53F
:404240006F156F7002156E80CC900007E0247DF582E43406F5837403F09006AC7405F0A314F0E4F56EF56FC3E56F9402E56E94004003024338E56FAE6E7802C333CE33CE7E
:40428000D8F924A5F58274093EF583E0FCA3E0FDA3E0FEA3E0FF746E256FF5827409356EF583E0F9F81260EAC004C005C006C007E56FAE6E7803C333CE33CED8F924AEF54B
:4042C0008274063EF583D007D006D005D004126163E56FAE6E7802C333CE33CED8F924ADF58274093EF583E0FCA3E0FDA3E0FEA3E0FF746E256FF5827409356EF583E0F928
:40430000F81260EAC004C005C006C007E56FAE6E7803C333CE33CED8F924B2F58274063EF583D007D006D005D004126163056FE56F7002056E024267756E0085766FE56FF0
:40434000456E602CC3E576956FFFE4956EFE74072FF58274013EF583E0FD74BE2FF58274063EF583EDF0E56F156F7002156E80CE9006DE7405F0A37402F09009B9E0FCA318
:40438000E0FDA3E0FEA3E0FF9006E01261639009BDE0FCA3E0FDA3E0FEA3E0FF9006E4126163E4F56EF56F7B017A01792412ABD1C3E56F9FE56E9E50267424256FF58274CB
:4043C00001356EF583E0FF74E8256FF5827406356EF583EFF0056FE56F7002056E80C89007107403F0A37401F0900969E0FFA3E0900712CFF0A3EFF0756E0085776FE56FEC
:40440000456E602CC3E577956FFFE4956EFE743F2FF58274013EF583E0FD74142FF58274073EF583EDF0E56F156F7002156E80CE756E0085786FE56F456E602CC3E57895E7
:404440006FFFE4956EFE74532FF58274013EF583E0FD74422FF58274073EF583EDF0E56F156F7002156E80CE756E0085796FE56F456E602CC3E579956FFFE4956EFE748708
:404480002FF58274013EF583E0FD74D82FF58274073EF583EDF0E56F156F7002156E80CE756E00857A6FE56F456E602CC3E57A956FFFE4956EFE74EA2FF58274013EF58316
:4044C000E0FD746E2FF58274083EF583EDF0E56F156F7002156E80CE7B017A0479B6900005E0A3E014FD12A779900005E0FCA3E0FD24B5F58274043CF583EFF07B017A0483
:4045000079B612983E12AD0422900AD3E09009DBF02290096DE064036069E064056064E4FFFE7D807C47900AD3E0F8A3E0F9A3E0FAA3E0FB125979125BD69009DC126163BA
:40454000E4FFFE7D807C47900AD7E0F8A3E0F9A3E0FAA3E0FB125979125BD69009E0126163E4FFFE7D807C47900ADBE0F8A3E0F9A3E0FAA3E0FB125979125BD69009E41249
:40458000616322E4FFFE7D807C47900AD3E0F8A3E0F9A3E0FAA3E0FB125979125BD69009F4126163E4FFFE7D807C47900AD7E0F8A3E0F9A3E0FAA3E0FB125979125BD69016
:4045C00009F8126163E4FFFE7D807C47900ADBE0F8A3E0F9A3E0FAA3E0FB125979125BD69009FC1261632290096DE064036069E064056064E4FFFE7D807C47900AD3E0F8C2
:40460000A3E0F9A3E0FAA3E0FB125979125BD69009E8126163E4FFFE7D807C47900AD7E0F8A3E0F9A3E0FAA3E0FB125979125BD69009EC126163E4FFFE7D807C47900ADB8C
:40464000E0F8A3E0F9A3E0FAA3E0FB125979125BD69009F012616322E4FFFE7D807C47900AD3E0F8A3E0F9A3E0FAA3E0FB125979125BD6900A00126163E4FFFE7D807C47AE
:40468000900AD7E0F8A3E0F9A3E0FAA3E0FB125979125BD6900A04126163E4FFFE7D807C47900ADBE0F8A3E0F9A3E0FAA3E0FB125979125BD6900A0812616322900AD3E02C
:4046C000900A0EF022900AD3E0900A0FF022900AD3E0900A10F022E4F56EF56FC3E56F9406E56E940040030249E274D3256FF582740A356EF583E0FF7411256FF582740A64
:40470000356EF583EFF0056FE56F7002056E80CCE4F56EF56FC3E56F9406E56E940040030247B8E56F25E0FFE56E33FE74D32FF582740A3EF583E0FEA3E0FFEE3395E0FD0F
:40474000FCC004C005C006C007E56FAE6E7802C333CE33CED8F9FBAA062417F582740A3AF583D007D006D005D00412616374172BF582740A3AF583C083C082E0FCA3E0FDB0
:40478000A3E0FEA3E0FF7411256FF582740A356EF583E0F9F81260FED082D083126163749A256FF582740B356EF583E4F0056FE56F7002056E024715D20A22E4F56EF56FD6
:4047C000C3E56F9406E56E940040030249E2E56FAE6E7802C333CE33CED8F924D3F582740A3EF583E0FCA3E0FDA3E0FEA3E0FFC004C005C006C007E56FAE6E7802C333CE6C
:4048000033CED8F9242FF582740A3EF583D007D006D005D004126163056FE56F7002056E809E900AD3E0900A47F022E4F56EF56FC3E56F9402E56E940040030249E2E56F6E
:40484000AE6E7803C333CE33CED8F924D3F582740A3EF583E0FCA3E0FDA3E0FEA3E0FFC004C005C006C007E56FAE6E7802C333CE33CED8F92448F582740A3EF583D007D0B6
:4048800006D005D004126163E56FAE6E7803C333CE33CED8F924D7F582740A3EF583E0FCA3E0FDA3E0FEA3E0FFC004C005C006C007E56FAE6E7802C333CE33CED8F9FBAAB2
:4048C000062450F582740A3AF583D007D006D005D00412616374482BF582740A3AF583C083C082E0FCA3E0FDA3E0FEA3E0FF7411256FF582740A356EF583E0F9F81260FE8F
:40490000D082D083126163E56FAE6E7802C333CE33CED8F92450F582740A3EF583C083C082E0FCA3E0FDA3E0FEA3E0FF7411256FF582740A356EF583E0F9F81260FED082BD
:40494000D083126163056FE56F7002056E024830900AD3E0FCA3E0FDA3E0FEA3E0FF900008126163E4FFFEFDFC900008E0F8A3E0F9A3E0FAA3E0FBD31260B05014900008FB
:40498000E0FCA3E0FDA3E0FEA3E0FF900A5C126163900AD7E0FCA3E0FDA3E0FEA3E0FF900008126163E4FFFEFDFC900008E0F8A3E0F9A3E0FAA3E0FBC31260B040249000F4
:4049C00008E0FCA3E0FDA3E0FEA3E0FF900A6012616322900AD3E0FFA3E0900A0CCFF0A3EFF0228F23E4F52BF52AF529F528900939E0FCA3E0FDA3E0FEA3E0F53F8E3E8DB7
:404A00003D8C3CA3E0FCA3E0FDA3E0FEA3E0F5438E428D418C40A3E0FCA3E0FDA3E0FEA3E0F5478E468D458C44A3E0FCA3E0FDA3E0FEA3E0F54B8E4A8D498C48A3E0FCA330
:404A4000E0FDA3E0FEA3E0F54F8E4E8D4D8C4CA3E0FCA3E0FDA3E0FEA3E0F5538E528D518C50A3E0FCA3E0FDA3E0FEA3E0F5578E568D558C54A3E0FCA3E0FDA3E0FEA3E0A6
:404A8000F55B8E5A8D598C58A3E0FCA3E0FDA3E0FEA3E0F55F8E5E8D5D8C5CA3E0FCA3E0FDA3E0FEA3E0F5638E628D618C60A3E0FCA3E0FDA3E0FEA3E0F5678E668D658CE9
:404AC00064A3E0FCA3E0FDA3E0FEA3E0F56B8E6A8D698C68E523C39402400302597890096CE064016003024BDE900A6DE0FCA3E0FDA3E0FEA3E0FFE52325E025E024C1F56C
:404B000082E43409F5831261639009A4E07003024BDEE52325E025E024A5F582E43409F583E0FCA3E0FDA3E0FEA3E0FFE52325E025E024C1F582E43409F583E0F8A3E0F924
:404B4000A3E0FAA3E0FBC31260B0502CE52325E025E024A5F582E43409F583E0FCA3E0FDA3E0FEA3E0FFE52325E025E024C1F582E43409F583126163E52325E025E024ADCF
:404B8000F582E43409F583E0FCA3E0FDA3E0FEA3E0FFE52325E025E024C1F582E43409F583E0F8A3E0F9A3E0FAA3E0FBD31260B0402CE52325E025E024ADF582E43409F55F
:404BC00083E0FCA3E0FDA3E0FEA3E0FFE52325E025E024C1F582E43409F58312616390096DE0FF14700302580B14700302551F147003024F3814600D147003024F3824055E
:404C00006003025863EF64046003024C8EE52325E025E024C1F582E43409F583E0FCA3E0FDA3E0FEA3E0FF900B82E0F8A3E0F9A3E0FAA3E0FBC3EF9BFFEE9AFEED99FDECAB
:404C400098FC1260A2E52325E025E02434F8126157E52325E025E0247AF582E4340BF583E0F8A3E0F9A3E0FAA3E0FBC000E52325E025E02434F812614BD000C3EF9BF52F2E
:404C8000EE9AF52EED99F52DEC98F52C8043E52325E025E0247AF582E4340BF583E0F8A3E0F9A3E0FAA3E0FBE52325E025E024C1F582E43409F583E0FCA3E0FDA3E0FEA3A1
:404CC000E0C39BF52FEE9AF52EED99F52DEC98F52CE52325E025E0246FF582E4340CF583C083C082E0FCA3E0FDA3E0FEA3E0252FFFEE352EFEED352DFDEC352CFCD082D064
:404D000083126163300C05C20C128C01E52325E025E0246FF582E4340CF583E0FCA3E0FDA3E0FEA3E0FF7BA07A8679017800C31260B0501C7FA07E867D017C00E52325E0CD
:404D400025E0246FF582E4340CF5831261638042E52325E025E0246FF582E4340CF583E0FCA3E0FDA3E0FEA3E0FF7B607A7979FE78FFD31260B0401A7F607E797DFE7CFF02
:404D8000E52325E025E0246FF582E4340CF583126163300C05C20C128C01E4F52BF52AF529F528FFFEFDFCAB3FAA3EA93DA83CC31260B0606AE4FFFE7D02FCAB2FAA2EA961
:404DC0002DA82CD31260B0500FE4FFFE7DFE7CFFA82CC31260B05027AF2FAE2EAD2DAC2C78081260EAAB3FAA3EA93DA83C125F7878081260EA8F2B8E2A8D298C288020AF83
:404E00002FAE2EAD2DAC2CAB3FAA3EA93DA83C125F7878101260EA8F2B8E2A8D298C28300C05C20C128C01E4FFFEFDFCAB43AA42A941A840C31260B06043AF43AE42AD41E4
:404E4000AC4078061260EAE52325E025E0246FF582E4340CF583E0F8A3E0F9A3E0FAA3E0FB125F78780A1260EAE52B2FF52BE52A3EF52AE5293DF529E5283CF528E4FFFE23
:404E8000FDFCAB47AA46A945A844C31260B06063E52325E025E0247AF582E4340BF583E0F8A3E0F9A3E0FAA3E0FBE52325E025E02465F582E4340AF583E0FCA3E0FDA3E0F9
:404EC000FEA3E0C39BFFEE9AFEED99FDEC98FCAB47AA46A945A844125F7878101260EAE52B2FF52BE52A3EF52AE5293DF529E5283CF528300C05C20C128C01E523701CFFE7
:404F0000FEFDFCAB2BAA2AA929A828C31260B04005D20E025863C20E025863E4FFFEFDFCAB2BAA2AA929A828C31260B04005D20F025863C20F02586390096DE064056003AC
:404F4000024FC4E52325E025E024C1F582E43409F583E0FCA3E0FDA3E0FEA3E0FF900B82E0F8A3E0F9A3E0FAA3E0FBC3EF9BFFEE9AFEED99FDEC98FC1260A2E52325E0252F
:404F8000E02434F8126157E52325E025E0247AF582E4340BF583E0F8A3E0F9A3E0FAA3E0FBC000E52325E025E02434F812614BD000C3EF9BF52FEE9AF52EED99F52DEC98EE
:404FC000F52C8043E52325E025E0247AF582E4340BF583E0F8A3E0F9A3E0FAA3E0FBE52325E025E024C1F582E43409F583E0FCA3E0FDA3E0FEA3E0C39BF52FEE9AF52EED3B
:4050000099F52DEC98F52C300C05C20C128C01E52325E025E0246FF582E4340CF583C083C082E0FCA3E0FDA3E0FEA3E0252FFFEE352EFEED352DFDEC352CFCD082D08312D7
:405040006163E52325E025E0246FF582E4340CF583E0FCA3E0FDA3E0FEA3E0FF7BA07A8679017800C31260B0501C7FA07E867D017C00E52325E025E0246FF582E4340CF5A5
:40508000831261638042E52325E025E0246FF582E4340CF583E0FCA3E0FDA3E0FEA3E0FF7B607A7979FE78FFD31260B0401A7F607E797DFE7CFFE52325E025E0246FF582CB
:4050C000E4340CF583126163E4F527F526F525F524FFFEFDFCAB57AA56A955A854C31260B07003025168E4FFFE7D02FCAB2FAA2EA92DA82CD31260B0500FE4FFFE7DFE7C07
:40510000FFA82CC31260B05033AF2FAE2EAD2DAC2C78081260EAAB57AA56A955A854125F7878081260EAE5272FF527E5263EF526E5253DF525E5243CF524802CAF2FAE2E4B
:40514000AD2DAC2CAB57AA56A955A854125F7878101260EAE5272FF527E5263EF526E5253DF525E5243CF524E4FFFEFDFCAB5BAA5AA959A858C31260B06038E52325E025A5
:40518000E0246FF582E4340CF583E0FCA3E0FDA3E0FEA3E0FFA858125F7878101260EAE5272FF527E5263EF526E5253DF525E5243CF524E4FFFEFDFCAB5FAA5EA95DA85CCD
:4051C000C31260B06063E52325E025E0247AF582E4340BF583E0F8A3E0F9A3E0FAA3E0FBE52325E025E02465F582E4340AF583E0FCA3E0FDA3E0FEA3E0C39BFFEE9AFEED1A
:4052000099FDEC98FCAB5FAA5EA95DA85C125F7878101260EAE5272FF527E5263EF526E5253DF525E5243CF524300C05C20C128C01900969E0FEA3E0FFEE3395E0FDFCABAB
:4052400027AA26A925A824D31260B04016900969E0FEA3E0FFEE3395E08F278E26F525F524803C900969E0FEA3E0FFC3E49FFFE49EFE3395E0FDFCAB27AA26A925A824C33A
:405280001260B0501A900969E0FEA3E0FFC3E49FFFE49EFE3395E08F278E26F525F524E52325E025E02492F582E4340BF583E0F8A3E0F9A3E0FAA3E0FBC3E5279BF533E556
:4052C000269AF532E52599F531E52498F530E52325E025E02477F582E4340CF583C083C082E0FCA3E0FDA3E0FEA3E02533FFEE3532FEED3531FDEC3530FCD082D083126134
:4053000063E52325E025E02477F582E4340CF583E0FCA3E0FDA3E0FEA3E0FF7BA07A8679017800C31260B0501C7FA07E867D017C00E52325E025E02477F582E4340CF583B0
:405340001261638042E52325E025E02477F582E4340CF583E0FCA3E0FDA3E0FEA3E0FF7B607A7979FE78FFD31260B0401A7F607E797DFE7CFFE52325E025E02477F582E497
:40538000340CF583126163300C05C20C128C01E4F52BF52AF529F528FFFEFDFCAB63AA62A961A860C31260B06026AF33AE32AD31AC30A860125F7878101260EAE52B2FF541
:4053C0002BE52A3EF52AE5293DF529E5283CF528E4FFFEFDFCAB67AA66A965A864C31260B06038E52325E025E02477F582E4340CF583E0FCA3E0FDA3E0FEA3E0FFA8641277
:405400005F7878101260EAE52B2FF52BE52A3EF52AE5293DF529E5283CF528E4FFFEFDFCAB6BAA6AA969A868C31260B06063E52325E025E02492F582E4340BF583E0F8A3F4
:40544000E0F9A3E0FAA3E0FBE52325E025E0247DF582E4340AF583E0FCA3E0FDA3E0FEA3E0C39BFFEE9AFEED99FDEC98FCAB6BAA6AA969A868125F7878101260EAE52B2FF6
:40548000F52BE52A3EF52AE5293DF529E5283CF528300C05C20C128C01E523701AFFFEFDFCAB2BAA2AA929A828C31260B04004D20E801DC20E8019E4FFFEFDFCAB2BAA2A7C
:4054C000A929A828C31260B04004D20F8002C20F300C05C20C128C0174FF7F9CFEFDFCAB2BAA2AA929A828C31260B0500E74FF752B9CF52AF529F528025863E47F64FEFD63
:40550000FCAB2BAA2AA929A828D31260B05003025863E4752B64F52AF529F5280258639009D9E07003025863200D03025863E52325E025E024C9F582E43409F583E0FCA322
:40554000E0FDA3E0FEA3E0F5278E268D258C24900969E0FEA3E0FFEE3395E0FDFCAB27AA26A925A824D31260B04016900969E0FEA3E0FFEE3395E08F278E26F525F524808B
:405580003C900969E0FEA3E0FFC3E49FFFE49EFE3395E0FDFCAB27AA26A925A824C31260B0501A900969E0FEA3E0FFC3E49FFFE49EFE3395E08F278E26F525F524300C05AF
:4055C000C20C128C01E52325E025E02492F582E4340BF583E0F8A3E0F9A3E0FAA3E0FBC3E5279BF533E5269AF532E52599F531E52498F530E52325E025E02477F582E434EC
:405600000CF583C083C082E0FCA3E0FDA3E0FEA3E02533FFEE3532FEED3531FDEC3530FCD082D083126163E52325E025E02477F582E4340CF583E0FCA3E0FDA3E0FEA3E01F
:40564000FF7BA07A8679017800C31260B0501C7FA07E867D017C00E52325E025E02477F582E4340CF5831261638042E52325E025E02477F582E4340CF583E0FCA3E0FDA399
:40568000E0FEA3E0FF7B607A7979FE78FFD31260B0401A7F607E797DFE7CFFE52325E025E02477F582E4340CF583126163300C05C20C128C01E4F52BF52AF529F528FFFE14
:4056C000FDFCAB4BAA4AA949A848C31260B06026AF33AE32AD31AC30A848125F7878101260EAE52B2FF52BE52A3EF52AE5293DF529E5283CF528E4FFFEFDFCAB4FAA4EA932
:405700004DA84CC31260B0603DE52325E025E02477F582E4340CF583E0FCA3E0FDA3E0FEA3E0FF78061260EAA84C125F78780A1260EAE52B2FF52BE52A3EF52AE5293DF5E7
:4057400029E5283CF528E4FFFEFDFCAB53AA52A951A850C31260B0604FE52325E025E0247FF582E4340CF583E0F8A3E0F9A3E0FAA3E0FBC3E5339BFFE5329AFEE53199FD59
:40578000E53098FCAB53AA52A951A850125F7878101260EAE52B2FF52BE52A3EF52AE5293DF529E5283CF528300C05C20C128C01AF33AE32AD31AC30E52325E025E0247F0E
:4057C000F582E4340CF583126163E523701AFFFEFDFCAB2BAA2AA929A828C31260B04004D20E801DC20E8019E4FFFEFDFCAB2BAA2AA929A828C31260B04004D20F8002C269
:405800000F300C5FC20C128C018058E52325E025E024D1F582E43409F583E0FCA3E0FDA3E0FEA3E0F52B8E2A8D298C28E523701AFFFEFDFCAB2BAA2AA929A828C31260B007
:405840004004D20E801DC20E8019E4FFFEFDFCAB2BAA2AA929A828C31260B04004D20F8002C20F300C05C20C128C01E47F64FEFDFCAB2BAA2AA929A828D31260B0400AE4A0
:40588000752B64F52AF529F52874FF7F9CFEFDFCAB2BAA2AA929A828C31260B0500B74FF752B9CF52AF529F528300C05C20C128C0190096DE064016037AF2BAE2AAD29ACAC
:4058C00028780A1260FEE47B64FAF9F812A406A804A905AA06AB07900BECE0FFE4FCFDFE125F78780A1260EA8F2B8E2A8D298C28300E11300F077F0312AFF680167F01128E
:40590000AFF6800F300F077F0212AFF68005E4FF12AFF6300C05C20C128C01E5237029FFFEFDFCAB2BAA2AA929A828C31260B040047F0180027FFF900B78EFF0AE2AAF2BB8
:4059400012AEA812AFCC8028E4FFFEFDFCAB2BAA2AA929A828C31260B040047F0180027FFF900B79EFF0AE2AAF2B12AEA812AFD2300C05C20C128C0122EC4D6011E8497000
:4059800017ED33EC3304600DE4FCFFFEFD22E933E8330470F8025C42125C0D58046009E4CC24815006285009025C4C284003025C49C0E0EB4A7044B98006D0E0FB025C38B0
:4059C000EF4E701CBD8008EBFFEAFEE9FD80EBE98DF0A4FEE5F0025A62E9CDF9EAFEEBFFEF89F0A4FCE5F0CE89F0A42EFFE435F0CD89F0A42DFEE435F08067EF4E7005BDE8
:405A000080D780C3EF8BF0A4ACF0EE8BF0A42CFCE435F0F8EF8AF0A42CE5F038FCE433CB8DF0A42CFCE5F03BF8EE8AF0A42CFCE5F038F8E433CF89F0A42CFCE5F038CF3403
:405A400000CE89F0A42FFFE5F03EFEE433C98DF0A42EFEE5F039CD8AF0A42FFFE5F03EFEE43DFD33D0E0FB50070BBB000F025C4CEC2CFCEF33FFEE33FEED33FD025C2402D0
:405A80005C4CEC5D046005E859047003025C42125C0D580460F6EC4860F2EC7004FDFEFF22C860DB2481C85009C39860025006025C499850CAF582E9294B4A7005AB82020E
:405AC0005C3875F0007C1A7880C3EF9BEE9AED99400DC3EF9BFFEE9AFEED99FDE842F0DC23ACF0D0E0FFD0E0FED0E0FDAB8220E7101BEB60BAEC2CFCEF33FFEE33FEED338B
:405B0000FD025C24E803F830E705C0F075F000EF2FFFEE33FEED33FD40B830E7C280AA74F8CC6480CCC86480C8F58204604FC3EB9FF5F0EA9E42F0E99D42F0E89C45F0603B
:405B40003C501DE5825FFFE582D313CB5BCBF42B5582FB50280ABA002409B9002008801DE5825BFBE582D313CF5FCFF4C3132F5582FF50090EBE00050DBD00010CC3EB9F7D
:405B8000F5F0EA9E42F0E99D42F0E89C45F06007CC4820E701B3EC2275F020800E75F010800575F0087D007E007F003392D530D5031260A2EC334010EF33FFEE33FEED3318
:405BC000FDEC33FCD5F0ED22E5F0247EA2D513CC92E7CDCEFF22EDD2E7CD33EC3392D524814006E4FFFEFDFC22FCE4CFCECDCC24E0501174FF80EDC3CC13CCCD13CDCE134D
:405C0000CECF13CF0470F030D5DE0260A2E9D2E7C933E833F892D5EDD2E7CD33EC33FC5002B2D522EC30E7100FBF000C0EBE00080DBD00040BEB6014A2D5EB13FCED92E7F6
:405C4000FD2274FFFCFDFEFF22E480F8A2D574FF13FC7D80E480EFF920E73624F950037907E4F42402FBE582158270021583DBF6E024FB501BE96014E4F0E58215827002D2
:405C80001583E004F0B40A08E4F0D9EE7401F00A22C2D522ED33EC3392D5FA602AB4FF33EDC2E77BFF60067A5C79B9E4227A5C79C220D5047A5C79BD224E614E002B494E42
:405CC00046002D494E4600E47A08F0A3DAFC7B00740722C083C082ECC0E0EDC0E0EEC0E0EFC0E0EA75F010A4CAABF075F04DA42BFBE435F0FCEA2410FAEB34C5FBEC34D9D9
:405D0000FCEDC2E7FF75F056A4F42411C5F0F434C58FF0A42AE5F03BE43CF020E714125EC1D0E0FFD0E0FED0E0FDD0E0FC125A828014F404125EC1D0E0FFD0E0FED0E0FD84
:405D4000D0E0FC125979D082D083E0FAEDD2E7CD33EC332482FBE4C3CF33CFCE33CECD33CD33DBF37B0775F00A846004F0A31B0AE5F0F0A38FF0740AA4FFACF08EF0740A68
:405D8000A42CFEACF050010C8DF0740AA42CFDE435F0F0A3DBDE740722025C42E86480F8E933E83360110460F0ED33EC337009E8FCE9FDEAFEEBFF220460DED3EB9FEA9E65
:405DC000E99DE8C2E78CF0C2F795F0400CE8CCF8E9CDF9EACEFAEBCFFB125C0D85D0F05804700320D5B3E80470075002B2D5025C4C92D5EC0460F7E4CCC0E0C398F8603BBB
:405E000094186008400DD0E0FB025C24E4FBFAC9FC8028E830E406E4C9FBE4CAFCE830E305E4C9CACBFCE854076010F8C3E913F9EA13FAEB13FBEC13FCD8F130F52FC3E4EA
:405E40009CFCEF9BFFEE9AFEED99FDD0E0FBEF4E4D4C701222DB03025C49EC2CFCEF33FFEE33FEED33FDED30E7EB025C24EF2BFFEE3AFEED39FDD0E0FB50130BBB00030231
:405E80005C4CED13FDEE13FEEF13FFEC13FC025C243F8000004120000042C80000447A0000461C400047C35000497424004B1896804CBEBC205A0E1BCA6753C21C749DC5E1
:405EC000AEFB60065407601C2323125EEFEB54386009125EDB125EEA125979ECF8EDF9EEFAEFCB22EB125EEA80F1543803241C905E91FE93FC0EEE93FD0EEE930ECE93FF06
:405F000022BB010689828A83E0225002E722BBFE02E32289828A83E49322BB010CE58229F582E5833AF583E0225006E92582F8E622BBFE06E92582F8E222E58229F582E58F
:405F4000833AF583E49322BB010689828A83F0225002F722BBFE01F322BB010A89828A83F0E5F0A3F0225006F709A7F01922BBFE06F3E5F009F31922E88FF0A4CC8BF0A4F9
:405F80002CFCE98EF0A42CFC8AF0EDA42CFCEA8EF0A4CDA8F08BF0A42DCC3825F0FDE98FF0A42CCD35F0FCEB8EF0A4FEA9F0EB8FF0A4CFC5F02ECD39FEE43CFCEAA42DCE4D
:405FC00035F0FDE43CFC2275F008758200EF2FFFEE33FECD33CDCC33CCC58233C5829BED9AEC99E58298400CF582EE9BFEED9AFDEC99FC0FD5F0D6E4CEFBE4CDFAE4CCF9A8
:40600000A88222B800C1B90059BA002DEC8BF084CFCECDFCE5F0CBF97818EF2FFFEE33FEED33FDEC33FCEB33FB10D703994004EB99FB0FD8E5E4F9FA227818EF2FFFEE33C2
:40604000FEED33FDEC33FCC933C910D7059BE99A4007EC9BFCE99AF90FD8E0E4C9FAE4CCFB2275F010EF2FFFEE33FEED33FDCC33CCC833C810D7079BEC9AE899400AED9BDC
:40608000FDEC9AFCE899F80FD5F0DAE4CDFBE4CCFAE4C8F922CFF4CFCEF4CECDF4CDCCF4CC22C3E49FFFE49EFEE49DFDE49CFC22EB9FF5F0EA9E42F0E99D42F0EC6480C865
:4060C00064809845F022EB9FF5F0EA9E42F0E99D42F0E89C45F022E8600FECC313FCED13FDEE13FEEF13FFD8F122E86010ECA2E713FCED13FDEE13FEEF13FFD8F022E86009
:406100000FEFC333FFEE33FEED33FDEC33FCD8F122BB010789828A830263E95005E9F802614BBBFE05E9F80263F589828A83026401BB010789828A830261635005E9F802CC
:406140006157BBFE05E9F802641122E6FC08E6FD08E6FE08E6FF22ECF608EDF608EEF608EFF622ECF0A3EDF0A3EEF0A3EFF022F8E0FBA3A3E0F925F0F0E5821582700215A2
:4061800083E0FA38F022EBF0A3EAF0A3E9F022D083D082F8E4937012740193700DA3A393F8740193F5828883E4737402936860EFA3A3A380DFE50F2582F582E50E3583F5BB
:4061C00083B50E0485820F2210AF0685820FF50E2285820FF50ED2AF22EC8EF0A4CCC5F0CCCDF8EFA4CEC5F02DFDE43CFCE8A42EC8C5F03DFDE43CFCEFA4FFE5F028FEE4E7
:406200003DFDE43CFC22E709F608DFFA8046E709F208DFFA803E88828C83E709F0A3DFFA8032E309F608DFFA806EE309F208DFFA806688828C83E309F0A3DFFA805A898205
:406240008A83E0A3F608DFFA804E89828A83E0A3F208DFFA804280D280FA80C680D4805580F28029801080A680EA809A80A880DA80E280CA802988848C8589828A83E493A6
:40628000A30586F0A30586DFF5DEF3800B89828A83E493A3F608DFF9ECFAA9F0EDFB2288848C8589828A83E0A30586F0A30586DFF6DEF480E389828A83E493A3F208DFF962
:4062C00080D688F0EF60010E4E60CD88F0ED2402B4040050C3F582EB2402B4040050B9232345822390625673E709F60870FA8046E709F20870FA803E88828C83E709F0A3A1
:4063000070FA8074E309F60870FA806CE309F20870FA806488828C83E309F0A370FA805889828A83E0A3F60870FA804C89828A83E0A3F20870FA804080D280FA80C680D4BD
:40634000805180F28027801080A680EA809A80A880DA80E280CA802788848C8589828A83E493A30586F0A3058670F5800B89828A83E493A3F60870F9ECFAA9F0EDFB228892
:40638000848C8589828A83E0A30586F0A3058670F680E589828A83E493A3F20870F980D888F0ED2402B4040050CEF582EB2402B4040050C4232345822390633873C5F0F81C
:4063C000A3E028F0C5F0F8E582158270021583E038F022A3F8E0C5F025F0F0E582158270021583E0C838F0E822E0FCA3E0FDA3E0FEA3E0FF22E2FC08E2FD08E2FE08E2FFF5
:4064000022E493FC740193FD740293FE740393FF22ECF208EDF208EEF208EFF222205945530000204E4F000020557362000020456E636F6465722033000020506F7369745E
:40644000696F6E00002050574D00002043757272656E74000020506F736974696F6E20616E642063757272656E740000204465666C656374696F6E0000204465666C656354
:4064800074696F6E20616E642063757272656E740000000D0A004669726D776172652076657273696F6E3A200051424144562076362E312E32206D6F642E2045786F53654D
:4064C0006E7365002E0D0A0D0A0044455649434520494E464F0D0A0049443A2025640D0A004E756D626572206F662073656E736F72733A2025640D0A0050574D204C696DA5
:4065000069743A2025640D0A004D4F544F5220494E464F0D0A004D6F746F72207265666572656E63657300202D20506F736974696F6E3A2000202D2043757272656E74735E
:406540003A2000202D2050776D3A2000202D204465666C656374696F6E2000256420004D6F746F7220656E61626C65643A20005945530D0A004E4F0D0A000D0A4D45415344
:406580005552454D454E545320494E464F0D0A0053656E736F722076616C75653A0D0A002564202D3E20256400566F6C7461676520286D56293A20256C64004375727265EA
:4065C0006E74203120286D41293A20256C640043757272656E74203220286D41293A20256C64000D0A44455649434520504152414D45544552530D0A0050494420436F6E48
:4066000074726F6C6C65723A0D0A0050202D3E2025660D0A0049202D3E2025660D0A0044202D3E2025660D0A0043757272656E742050494420436F6E74726F6C6C65723AE3
:406640000D0A00537461727475702061637469766174696F6E3A205945530D0A00537461727475702061637469766174696F6E3A204E4F0D0A00496E707574206D6F646534
:406680003A205553420D0A00496E707574206D6F64653A2053656E736F7220330D0A00436F6E74726F6C204D6F64653A2000506F736974696F6E0D0A0050574D0D0A0043D2
:4066C000757272656E740D0A00506F736974696F6E20616E642063757272656E740D0A004465666C656374696F6E0D0A004465666C656374696F6E20616E642063757272C1
:40670000656E740D0A0053656E736F72207265736F6C7574696F6E3A0D0A004D6561737572656D656E74204F66667365743A0D0A002564202D3E20256C64004D656173753A
:4067400072656D656E74204D756C7469706C6965723A0D0A002564202D3E20256600506F736974696F6E206C696D6974206163746976653A20256400506F736974696F6ECF
:40678000206C696D6974206D6F746F722025643A20696E66202D3E20256C64202000737570202D3E20256C640D0A004D61782073746966666E6573733A20256400437572F2
:4067C00072656E74206C696D69743A2025640064656275673A20256C640031202D204465766963652049443A0032202D20506F736974696F6E20504944205B502C20492C16
:4068000020445D3A0033202D2043757272656E7420504944205B502C20492C20445D3A0034202D20537461727475702041637469766174696F6E3A000000000035202D20B4
:40684000496E707574206D6F64653A00000000000000000000000036202D20436F6E74726F6C206D6F64653A0000000000000000000000000000000000000000000037202F
:406880002D205265736F6C7574696F6E733A0038202D204D6561737572656D656E74204F6666736574733A0039202D204D756C7469706C696572733A003130202D20506F44
:4068C000732E206C696D6974206163746976653A00000000003131202D20506F732E206C696D697473205B696E662C207375705D3A003132202D204D6178207374657073C9
:40690000205B6E65672C20706F735D3A003133202D2043757272656E74206C696D69743A0030202D3E205573620A31202D3E205368616674277320706F736974696F6E2010
:40694000636F6E74726F6C7320746865206D6F746F72730A0030202D3E20506F736974696F6E0A31202D3E2050574D0A32202D3E2043757272656E740A33202D3E20506FF9
:40698000736974696F6E2D43757272656E740A34202D3E204465666C656374696F6E0A35202D3E204465666C656374696F6E2D43757272656E740A0030202D3E2044656165
:4069C00063746976617465205B4E4F5D0A31202D3E204163746976617465205B5945535D0A004209358000647F04B6000000000000000000000000000000000000000000AB
:406A00000000000000000000000000000000000000000000000000000000000000000000000000000000000000000000000000000000000000000000000000000000000056
:406A40000000000000000000000000000000000000000000000000000000000000000000000000000000000000000000000000000000000000000000000000000000000016
:406A800000000000000000000000000000000000000000000000000000000000000000000000000000000000000000000000000000000000000000000000000000000000D6
:406AC0000000000000000000000000000000000000000000000000000000000000000000000000000000000000000000000000000000000000000000000000000000000096
:406B00000000000000000000000000000000000000000000000000000000000000000000000000000000000000000000000000000000000000000000000000000000000055
:406B40000000000000000000000000000000000000000000000000000000000000000000000000000000000000000000000000000000000000000000000000000000000015
:406B800000000000000000000000000000000000000000000000000000000000000000000000000000000000000000000000000000000000000000000000000000000000D5
:406BC0000000000000000000000000000000000000000000000000000000000000000000000000000000000000000000000000000000000000000000000000000000000095
:406C00000000000000000000000000000000000000000000000000000000000000000000000000000000000000000000000000000000000000000000000000000000000054
:406C40000000000000000000000000000000000000000000000000000000000000000000000000000000000000000000000000000000000000000000000000000000000014
:406C800000000000000000000000000000000000000000000000000000000000000000000000000000000000000000000000000000000000000000000000000000000000D4
:406CC0000000000000000000000000000000000000000000000000000000000000000000000000000000000000000000000000000000000000000000000000000000000094
:406D00000000000000000000000000000000000000000000000000000000000000000000000000000000000000000000000000000000000000000000000000000000000053
:406D40000000000000000000000000000000000000000000000000000000000000000000000000000000000000000000000000000000000000000000000000000000000013
:406D800000000000000000000000000000000000000000000000000000000000000000000000000000000000000000000000000000000000000000000000000000000000D3
:406DC0000000000000000000000000000000000000000000000000000000000000000000000000000000000000000000000000000000000000000000000000000000000093
:406E00000000000000000000000000000000000000000000000000000000000000000000000000000000000000000000000000000000000000000000000000000000000052
:406E4000000000000000000000000000000000000000000000000000000000000000000000000000000000000000010800420C6D0001C190410CB100410D7400410D750079
:406E8000410D7600410D7700410D7800410D7900410D7A00410D7B00410D4300410D4500410D2100410D4200410D2000410D4400410D5100410D4C00410D4700410D4D009F
:406EC000410D4601410D7CFF410D7D00410D7E00410D7F00410D6A80410D697F440D6500000400440D5C02DC6C00440D570000BB80410D5B30440D615DC00000410D80FF59
:406F0000430D6B000000410D810000E56E2489F582E43404F583E0056E22900486300803900489E475F00112616F025F012001E97F2ED2018018EF540F2490D43440D4FF04
:406F400030050BEF24BFB41A0050032461FFE56F6002156F0572E5727002057130080E900486E475F00112616FEF025F4702A8F07403D2088003E4C208F56E90048612613B
:406F800086E4F56FF571F572E56F60077F20126F4E80F57570FFC202C201C203C204C206C207C209126F1AFF700D3008057F00126F5FAF72AE7122B4255FC2D5C205126F1A
:406FC0001AFF24D0B40A00501A75F00A786F30D50508B6FF0106C6A426F620D5047002D20480D924CFB41A00EF5004C2E5D205027251D20280C6D20180C0D20380BCD2D5EC
:4070000080BAD20680B47F20126F4E2003077401B56F0040F1126F0BFF126F4E026F88D209D2078095126F0BFB126F0BFA126F0BF94A4B7006794F7A737BFF20032EE56F1B
:40704000602A7E008E82758300125F1A60060EEE657070F0C2D5EBC0E0EAC0E0E9C0E0EE1272B2D0E0F9D0E0FAD0E0FB125F01FF60AAEBC0E0EAC0E0E9C0E0126F4ED0E0EF
:407080002401F9D0E03400FAD0E0FBE5700460DCD570D98087D20380A212729460F7E570700104125C57A970600DE570600914F57012733CEF60F3EA30E702F404C3995013
:4070C00079EAF425700430E701E404F570800D12729460C1EA05702570125C57EA9004B5F030E701E4257004D57004200601141272B2E4C0E012733C9004B5E0601320E762
:407100000714F0126F36802204F0D0E014C0E07F00126F36E5706007126F2D1570800B300603126F2DD0E0026F88D0E00480C4127294609EE57004125C579004B5EAF0E51F
:407140007020060260010424041272B274FF04C0E012733C126F36E5702006026003126F2DD0E0B570E87F45126F409004B5E07F2B30E7047F2DF404C0E0126F4ED0E0752F
:40718000F00A84C0F0126F37D0E0126F37026F88791080027908C207C2098008D2D5790A8004790AC2D5E570047002F570E4FAFDFEFF126F0BFC7B08200213126F0BFD7BCC
:4071C0001030010A126F0BFE126F0BFF7B20EC3382D592D55013C3E43001069FFFE49EFEE42002039DFDE49CFCE4CBF8C202EC700CCFCECDCCE824F8F870F38017C3EF3355
:40720000FFEE33FEED33FDEC33FCEB33FB994002FB0FD8E9EB300205F8D0E0C448B202C0E00AEC4D4E4F78207B0070C2EAB5700040BCC0E01272B4D0F0D0E0200204C4C0ED
